:100000001CC1000052C1000050C100004EC10000E0
:100010004CC100004AC1000048C1000046C10000B8
:1000200044C1000042C100000C94FB1B0C94C71C8F
:100030000C944D173AC1000038C1000036C10000D1
:1000400034C1000032C1000030C100002EC10000E8
:100050002CC100000C94D31728C1000026C1000059
:1000600024C1000022C1000020C100001EC1000008
:100070001CC100001AC1000018C1000016C1000018
:1000800014C1000012C1000010C100000EC1000028
:100090000CC100000AC1000008C1000006C1000038
:1000A00004C1000002C1000000C10000B200B300A2
:1000B00046000000AC00AE00AB00A8001E036800C4
:1000C00061006E00640077006900720065006400E2
:1000D0002F0065006C0078007A00000010034200D9
:1000E0006100720074006F0073007A000000040366
:1000F000090409023B00020100A0FA090400000102
:1001000003010100092111010001224400070581BA
:100110000308000109040100010300000009211186
:1001200001000122B6000705820320000112010030
:100130000200000008EDFE60600001010200010500
:10014000010902A10185020901A10005091901297E
:10015000081500250195087501810205010930097E
:10016000311581257F95027508810609381581258D
:100170007F950175088106050C0A38021581257FD7
:10018000950175088106C0C005010980A10185039C
:1001900019012AB700150126B700950175108100D5
:1001A000C0050C0901A101850419012AA00215014D
:1001B00026A002950175108100C005010906A10164
:1001C0008506050719E029E7150025019508750141
:1001D00081020507190029EF1500250195F0750129
:1001E00081020508190129059505750191029501FE
:1001F00075039101C005010906A101050719E02950
:10020000E7150025019508750181029501750881A2
:10021000010507190029FF150026FF00950675083E
:1002200081000508190129051500250195057501AD
:100230009102950175039101C00011241FBECFEFFB
:10024000DAE0DEBFCDBF04B603FE18C080919B028A
:1002500090919C02A0919D02B0919E028730904B9C
:10026000A740B04B59F410929B0210929C0210923E
:100270009D0210929E02E0E0F8E3099511E0A0E0F3
:10028000B1E0ECEDFEE302C005900D92AE39B1078E
:10029000D9F722E0AEE9B1E001C01D92AB39B20757
:1002A000E1F70E944B0F0C941A1FAACE811111C0C6
:1002B000623078F4443068F484E0689FF0011124DF
:1002C000E40FF11DEE0FFF1FE455FF4F8591949150
:1002D000089581E090E00895E9CF089581E00895C0
:1002E000FDCF0895FBCF089581E00895F7CF0895DD
:1002F000F5CF0895FDCF089508950895FDCF089591
:1003000008950895A6E0B0E0E8E8F1E00C948D1EB1
:1003100049835A839E833091A50189819A81311145
:1003200017C03E81332389F0222379F032D5182F6C
:10033000682F89819A810DD569817A81812F0E94E8
:10034000F40C2696E3E00C94A91E13D5182FF4CFD5
:1003500020D569817A81F3CFFC01262F408151811C
:100360006281738184819581CDCFCF93DF93D82F24
:10037000C92F61E0F1DF6D2F7C2FB2DF882359F0A8
:1003800061E08D2F9C2FE8DF6D2F7C2FABDF81701C
:10039000DF91CF91089580E090E0F9CF0F931F9304
:1003A000CF93DF93D82FC92F60E0D6DF8C016D2F5C
:1003B0007C2FA3DF6D2F7C2FC801A0DFDF91CF91B1
:1003C0001F910F91089521E030E0A90102C0440F70
:1003D000551F8A95E2F7CA01F4C3CF93C82F81E075
:1003E00090E00C2E02C0880F991F0A94E2F70E9439
:1003F000F70A8C2FE8DFCF91089581E00895FDCFB3
:100400000895FBCF0895CF93C82F91D38C2FF7DF9A
:100410008C2FF7DF2FEF84E39CE021508040904049
:10042000E1F700C00000CF91089581E0ECDF0C946B
:10043000F71780E0E8DF0C941B180F931F93CF93FE
:10044000DF938C0161E088DFEC01B8014FDF882386
:1004500009F43FC0B801CE014DDF8823D1F1B801C6
:10046000CE010E948B148823A1F1B801CE010E9415
:10047000E010882371F1B801CE010E94B9108823E1
:1004800041F1B801CE010E94F60D882311F1F80167
:100490008581882381F0CA35FCE7DF0721F170F4FC
:1004A000C130ECE7DE07E9F0C330FCE7DF07B9F065
:1004B000C115DC4769F0C80117DF0CC0CB35ECE78C
:1004C000DE07A1F0CC35DC47B1F70E94BA0AF3CFC2
:1004D000ACDF80E0DF91CF911F910F9108950E94D2
:1004E000EF0AA7DFF6CF0E94C20AE5CF0E94C40A36
:1004F000E2CF06DF0E94231717C018D002DF0C944A
:10050000271781E008950895CF93DF93D82FF9DF5F
:10051000C82F882311F08D2FF6DF8C2FDF91CF911C
:1005200008950895F1CF089580E0FCCF0E94D7147C
:10053000F9CFCF930E94D714C82F8091A0018C17B8
:1005400071F0C093A0010E94B8176093A10170934D
:10055000A2018093A3019093A4018C2FE3DFCF919C
:100560000895ADE0B0E0E7EBF2E00C948E1E488712
:1005700059876A877B878C879D87911121D71F8236
:1005800086E0FE013896DE01119601900D928A9563
:10059000E1F78D8181110CC029813A814B815C8109
:1005A0006D817E818F8158D62D96E2E00C94AA1E33
:1005B000CE010196DADE8111EFCFF6CFFC01848106
:1005C000813019F48081918115C40895662321F04A
:1005D0000E9447120C9400130E948812FBCFCF9305
:1005E000C82F882389F08CEF8C0F813A78F48C2FF8
:1005F0000E948915882321F08C2F0E942E166FD718
:100600008C2F0E9417166BD7CF91089580E28C0F24
:10061000883040F4C77081E001C0880FCA95EAF7BE
:10062000B0D6F1CF8BE58C0F833038F42C2F2452C9
:10063000330BC9010E941915E7CFE8E5EC0FEB3148
:1006400050F4F0E0EE0FFF1FE65EFE4F80819181D7
:100650000E944115D9CF83E38C0F8331A8F661E066
:100660008C2FB4DFD1CF882351F19CEF980F913AB2
:1006700018F40E942E1633C790E2980F983048F471
:10068000877091E001C0990F8A95EAF7892F7FD68C
:10069000F2CF9BE5980F933020F480E090E00C942B
:1006A000191598E5980F9B3120F480E090E00C94A8
:1006B000411593E3980F933110F460E087CF0895CC
:1006C0001F93CF93DF93182FEB0189DF209731F42D
:1006D000812FC9DFDF91CF911F9108958FE99FE0AE
:1006E0000197F1F700C000002197F0CF60E070E0C3
:1006F000893311F460E570E0E3CF882311F041D62F
:10070000EEC60895882311F042D6E9C60895A0E008
:10071000B0E0EDE8F3E00C94881E6C01D62FC72FF3
:10072000FC011581068102950F7020D6E82E8823E2
:10073000E9F0E12E1123D1F08C2F807F803461F01D
:1007400080E28D0F8830E0F08C2F807E803221F4A3
:10075000D230B0F00023A1F08091850282FF10C05A
:1007600082E0E1D603D691E0E82EE926EC2FE2956F
:10077000EF70C03C78F5F0E0E45EF04E0C94781E2B
:10078000E12CF4CF0C2F0F70C03110F00295007FD8
:10079000112381F0002349F080E28D0F883010F0A2
:1007A000D11105C0802FEDD59AD68D2F41C0802F55
:1007B000F9D5FACF8D2F57DF002361F080E28D0F3E
:1007C000883010F0D11103C0802FE1D502C0802FF6
:1007D000EFD585D6EE2009F4B7C0C4D580FDB4C0EE
:1007E000F6011582B9D51ED2C60172D1B5D528D26F
:1007F000ABC0FC2FFF70FF2EC07FC03219F0F29407
:1008000080EFF822DD2341F0D13081F1112309F48A
:1008100039C00023C9F0C9CF8091850282FD10C084
:10082000112341F0FF2019F08F2DABD558D680E071
:10083000D6DED0CF80E017DFFF2061F28F2DC5CF4D
:10084000112359F0011103C08F2D57DFC3CF0130A1
:1008500009F0C0CF8F2DC9D5BDCF0111BBCF8F2DD2
:1008600051DF8F2DCDD58F2DB1D5B4CF112321F0F0
:10087000063008F0AFCFE8CF053008F0ABCF8F2DB2
:1008800041DFA8CF0023D9F3D93349F42FEF87EE06
:1008900093E0215080409040E1F700C000008D2F90
:1008A000E2DE98CF8C2F869586958370882369F039
:1008B000813009F08FCF8D2F9C2F9370111102C0C2
:1008C00080E090E00E94411585CF8D2F9C2F937082
:1008D000111102C080E090E00E9419157BCF612FBA
:1008E0008D2F74DE77CF8C2F8370811138C011115A
:1008F00028C04D2F429546954770440F440F2D2F29
:100900002F7030E0042E02C0220F331F0A94E2F74A
:1009100080E090E0D4FF09C08FE090E002C0880F33
:10092000991F4A95E2F780959095C695C695C37034
:10093000822B932BC23079F0C33079F0C13049F06B
:1009400049D10E94D714EEDDCDB7DEB7E8E00C94B4
:10095000A41E39D1F6CF45D1F4CF33D1F2CF112334
:1009600059F1C0FFEECF4D2F429546954770440F89
:10097000440F2D2F2F7030E0042E02C0220F331FA2
:100980000A94E2F780E090E0D4FF09C08FE090E0A5
:1009900002C0880F991F4A95E2F780959095C695F9
:1009A000C695C370822B932BC23061F0C33061F0C7
:1009B000C13031F06AD1C5CF823008F4C2CFD3CF75
:1009C0005DD1BFCF69D1BDCF19D1BBCFCF701123BE
:1009D00029F08C2F27D18D2F90DEB3CF8D2F92DE73
:1009E0008C2F2ED1AECFD23F21F168F4D03FB1F0A1
:1009F000D13F89F1112309F446C0002309F440C016
:100A00008D2FEDDD9ECFD33FD1F0D43F01F11111F9
:100A1000F4CF011146C08C2F8F71E3CF112339F031
:100A2000053008F08ECF8C2F8F711AD18ACF053008
:100A3000F8CF8C2F8F711111D4CFF4D082CF112326
:100A400021F08C2F8F71E4D07CCFDFD07ACF8091D2
:100A5000850282FD06C08C2F8F71112309F4C1CF4E
:100A6000ECCF112329F063E08C2F8F7145D569CF2E
:100A700081E059D5023008F464CF82E054D561CFCB
:100A80008C2F8F71DACF002309F4C5CFD93349F405
:100A9000EFEFF7EE23E0E150F0402040E1F700C037
:100AA00000008D2FE0DD4DCF0F931F93CF93DF9389
:100AB000EC01688179818D81A8D18C01F4D080D03E
:100AC000B801CE0124DEDF91CF911F910F910895DF
:100AD000CF93DF93EC018C81882381F0CE01ADDCD4
:100AE00081110FC043D4882349F08D81882331F0D0
:100AF0008091850282FF02C082E015D5DF91CF91FF
:100B00000895CE01D1DFCE0149DCF8CF80E090E03E
:100B10000E94191580E090E00E94411551D4DFD465
:100B20000E941A130C9400130E944516EFCF37D47D
:100B3000FBCF282F92959F70963091F060F4925FD2
:100B40009F70923030F481E0203F79F030F4283EFD
:100B500030F080E008959A5FF3CF243FD1F70895F5
:100B600081E0283EE0F3213FF9CF0895FC01848124
:100B7000882321F0808191813DD1DBCF80E00895F1
:100B8000A6E0B0E0E6ECF5E00C948E1E2696E2E0DE
:100B90000C94AA1EA7E0B0E0E0EDF5E00C948E1EE8
:100BA0002796E2E00C94AA1E0895FECF0895FDCF8B
:100BB0000895FADFFCDF9093AD018093AC010895B6
:100BC0000895F7CF08952091AC013091AD01822BAB
:100BD000932BEFCF2091AC013091AD018223932371
:100BE000E8CF2091AC013091AD0182279327E1CF6E
:100BF000DBCF0895FDCF0895D7CF0895FDDFFADF4D
:100C00009093AB018093AA01089580E090E0F6CF25
:100C100021E030E0A90102C0440F551F8A95E2F798
:100C2000CA01ECCF21E030E002C0220F331F8A95C9
:100C3000E2F78091AA019091AB01822B932BDECF3A
:100C400021E030E002C0220F331F8A95E2F72095A1
:100C500030958091AA019091AB0182239323CECF4E
:100C600021E030E002C0220F331F8A95E2F7809125
:100C7000AA019091AB0182279327C0CF2091AA01AE
:100C80003091AB01822B932BB9CF2091AA013091E7
:100C9000AB0182239323B2CF2091AA013091AB0103
:100CA00082279327ABCF08959B01677091E001C025
:100CB000990F6A95EAF763E0369527956A95E1F70B
:100CC000220F331F220F331FFA01E20FF31F40E000
:100CD00050E0682F70E08191DF0111979B01042E95
:100CE00002C0369527950A94E2F7217021952827AE
:100CF000292328272C934F5F5F4F4430510559F724
:100D000008959C01982F977083E0369527958A95D2
:100D1000E1F7220F331F220F331FFB01E20FF31FF6
:100D200040E050E080E0219130E0092E02C036958D
:100D300027950A94E2F721703327042E01C0220F71
:100D40000A94EAF7822B4F5F5F4F4430510559F701
:100D50000895282F862F923058F4243048F434E038
:100D6000939FB0011124620F711D46EA51E09CCFA0
:100D70000895282F923058F4843048F434E0939F3B
:100D8000C001112466EA71E0820F911DBACF80E0A4
:100D90000895A0E0B0E0EFECF6E00C94871E8C0123
:100DA000E090AA01F090AB018091AC019091AD016F
:100DB000E82AF92ACFE0D0E0CC24C394D12CC60194
:100DC0000C2E02C0880F991F0A94E2F78E219F21F2
:100DD000892B49F4219798F7B12C8B2DCDB7DEB72D
:100DE000E9E00C94A31EBC2EB8018C2F08D6019705
:100DF00089F3F3CFCF93DF93D82FC92FCADF6D2F9D
:100E00007C2FFDD5DF91CF9108951F93CF93DF9372
:100E1000162FD72F9091A501992339F0862F972F60
:100E2000E9DFDF91CF911F910895882369F0862F24
:100E3000972FAFDFC82F682F812F9D2F8ADF612F5B
:100E40007D2F8C2FDCD5EDCF862F972F92DFC82FEB
:100E5000F6CF0F931F93CF93E091AE01C7E080913F
:100E6000AF018E1304C0CF911F910F9108950E2FE3
:100E700010E0CE9FF0011124E055FE4F208131811A
:100E80004281538164817581868184DEF8013196C7
:100E9000E770E5CF2091E8013091E9014091EA0146
:100EA0005091EB016091EC017091ED018091EE01A8
:100EB00071CE8091EE01803178F48091ED0188232C
:100EC00059F0E091AE012091AF013091E9014091DC
:100ED000E80157E02E1301C008956E2F70E05E9F69
:100EE000F0011124DF01A055BE4F14968C91149788
:100EF000882349F111968C911197831324C08C910A
:100F0000841321C015968C91159781111CC01296DF
:100F10008D919C91A091EA01B091EB018A1B9B0BF2
:100F2000883C910580F48091EE018F708061809300
:100F3000EE01EA54FE4F80818F708061808388EEDD
:100F400091E0C6DD86CFFB013196E770C3CFE0911B
:100F5000AE019091AF0127E0E91302C080E008954F
:100F6000AE2FB0E02E9FF0011124E055FE4F3181ED
:100F7000361306C03081381303C03581341304C0E2
:100F8000FD013196E770E8CF81E008958F929F923E
:100F9000AF92BF92DF92EF92FF920F931F93CF9386
:100FA000DF93CDB7DEB72D970FB6F894DEBF0FBE37
:100FB000CDBF8C0186E0F801DE01189601900D92FC
:100FC0008A95E1F7F801E080F580A280B380848102
:100FD00098EE892E91E0992E9091EC01911117C015
:100FE000882309F4ECC0FF2009F42BC1C801BEDD41
:100FF000882309F426C187E0F801D40101900D92FD
:101000008A95E1F7C401DADA54DF44DFD8C0D09022
:10101000ED012091EA013091EB01A501421B530B38
:10102000DD2009F4CFC0483C510508F09EC088235C
:1010300009F4C5C09091E90191808091EE01803161
:1010400008F065C0991226C09091E8019E1122C057
:10105000F11057C08F7080618093EE011BDF88EE26
:1010600091E036DD8091EE01F8018683F12C8F2D21
:101070002D960FB6F894DEBF0FBECDBFDF91CF9196
:101080001F910F91FF90EF90DF90BF90AF909F90D6
:101090008F900895F11035C040E0692D8E2D57DFF7
:1010A00040E0692D8E2D53DFF82E8111DFCF88852A
:1010B0009985A0DE292F22952F70903450F49F70CF
:1010C000223078F0992391F0F8019681903170F4F4
:1010D000CECF2A5F2F70223070F0C801F9DCFD2CD2
:1010E000C6CF992319F0882309F4C1CF805E8830D8
:1010F00008F4BDCFF2CF803F08F4B9CF815F8230D2
:10110000F7CF8091EE0181608093EE01AFCF99120D
:1011100007C09091E8019E1103C0FF2009F473C03D
:10112000C80124DD882309F48CC0FF2009F489C09C
:101130008091EE01803280F02091E8013091E90148
:101140003A832983BC82AB829091EC019D831E82FD
:101150008F83CE010196BCDC87E0F801A8EEB1E0F8
:1011600001900D928A95E1F74FCF9091EE01903169
:1011700088F4488559856A857B858C859D8500DD49
:1011800088EE91E0A5DC87E0F40111928A95E9F7F9
:1011900081DE6CCF882399F02091E90181812813A9
:1011A000BFCF8091E8018E11BBCFF110B9CF9683EC
:1011B000C8018EDC87E0F40111928A95E9F7FF24DB
:1011C000F39455CF483C510508F03EC08823B9F34D
:1011D000FF20B9F19091E9018181981329C0809194
:1011E000E8018E1125C08091EE0180FD18C080318C
:1011F000B0F08683807F803F39F08681982F907F82
:10120000905F8F70892B8683C80162DC87E0F801CC
:10121000A8EEB1E001900D928A95E1F7F6CE87E055
:10122000F801A8EEB1E001900D928A95E1F7C7CFE1
:10123000C8019CDC811190CF8091EE018160809388
:10124000EE01C80145DCBBCF488559856A857B85A1
:101250008C859D8595DC97CFAEE0B0E0E2E3F9E0C8
:101260000C948D1E288739874A875B876C877D871A
:101270008E87CE0108968ADE8823A9F06C856623C6
:1012800039F0288539854A855B857D858E8582DCA8
:1012900017E08091AE019091AF0189133CC02E966A
:1012A000E3E00C94A91E87E0FE013896DE0111965A
:1012B00001900D928A95E1F72091AF014091AE0126
:1012C0008C85882329F330E0C9010196877099271E
:1012D00050E08417950791F097E0929FD001939F7B
:1012E000B00D1124A055BE4FFE01319601900D9214
:1012F0009A95E1F78093AF01ACDDCACF18DC10926C
:10130000AF011092AE0187E0E8EEF1E0DF011D923F
:101310008A95E9F7BDCF189FC001112480559E4FD3
:1013200035DE882309F4BBCFE091AE011E9FF001AA
:101330001124E055FE4F2081318142815381648127
:101340007581868127DC8091AE0190E001968770DF
:1013500099278093AE019DCF80911702869586953F
:1013600086950895809117028770089590911702CD
:10137000977081E0911101C080E00895809143024F
:10138000089590914302982B909343020895982FCB
:10139000909580914302892380934302089510928F
:1013A0004302089590914202982B9093420208952F
:1013B000982F90958091420289238093420208954C
:1013C0001092420208950895FECF08959091180258
:1013D000292F2823222329F080958923809318021E
:1013E000F3CF08950895FECF089590911902292F03
:1013F0002823281721F0982B90931902F4CF0895F1
:1014000090911902292F2823222329F080958923DE
:1014100080931902E8CF089580911902882321F062
:101420001092190280E0DFCF0895CF93DF93C0912F
:10143000430280914202C82BD0911902DD2329F08A
:101440000E9469158111E8DFCD2B8C2FDF91CF91A0
:101450000895CF93DF93C0910201D0910301E5DF9E
:101460008883C0910201D091030148E050E06FE011
:1014700072E0CE010E94C91E892B59F088E0FE015E
:10148000AFE0B2E001900D928A95E1F7CE010E94A3
:10149000E614DF91CF910895CF93DF93C0910001BF
:1014A000D0910101C2DF8983C0910001D091010177
:1014B00040E250E06FEE71E0CE010E94C91E892B20
:1014C00059F080E2FE01AFEEB1E001900D928A95F5
:1014D000E1F7CE010E94F314DF91CF9108950E94AD
:1014E000D014882329F08091840287FF01C0D4CFD3
:1014F000B0CF0895FECF08959091850292FF0EC05F
:1015000098E0899F90011124622B609317028ADB77
:1015100080911702869586958695ECCF83CB1092A5
:10152000170280E0E7CF909117028095892380937E
:101530001702282F277021110BC0891749F09091AD
:10154000850292FF05C086958695869579DBE7CF63
:1015500008959091850292FB222720F9281749F0DF
:1015600080FB92F99093850284E892E044D082E077
:10157000DACF08958091850282FB882780F991E077
:101580008927E7CF81E0E5CF80E0E3CF60E070E03E
:10159000CB018BC360E070E0CB0181D3F7CFA3E038
:1015A000B0E0E5EDFAE00C948E1E32D33DD31B8201
:1015B000CE01039650D381E090E09093AD018093EB
:1015C000AC0155D3198284E18A83CE01019660D3A0
:1015D000E1DF2396E2E00C94AA1EE1CF08952AC32E
:1015E000089517C308952CC308953BC308953FC3BE
:1015F000089542C308954CC308955DC30895A6E0BD
:10160000B0E0E5E0FBE00C948C1E0E94AC178C016E
:1016100080914402909145028017910779F01982D8
:101620001A820E94AC17BC0149815A8180E090E087
:101630000E94B10210934502009344022696E4E012
:101640000C94A81E0E94B817609350027093510228
:10165000809352029093530260934C0270934D0218
:1016600080934E0290934F0208950E94B8176093A2
:1016700050027093510280935202909353026093F0
:1016800048027093490280934A0290934B02089556
:1016900008950895FDCF08950895FEDFFBCF0895C6
:1016A000FECF08950895FEDFFBCF84EF9DE003D4C5
:1016B000F0DFF3CF81E00895FDCF0895FBCF0895CB
:1016C000089508950895FCDFFCDFFCCF8ADF8111C7
:1016D00001C083DF84E592E086DF84E892E089DF61
:1016E00046D583DF6EDA8091AA019091AB0182CA60
:1016F0000E94A317E7D350D3E9DF0E949102D3CF12
:10170000A6E0B0E0E6E8FBE00C94861ED5DF811190
:101710000BC075DF4DD48111A8DFADD70E949902AF
:101720002696EAE00C94A21E43D31091460280E074
:10173000CDD2181306C01091470281E0C7D2181706
:1017400041F38091540281FDC7D2B8DFC82E86E4F0
:10175000A82E82E0B82E00E0802FB8D2182FF50115
:1017600091915F01891741F1D82ED926F12CEE24F1
:10177000E3948D2D8E218823B9F0CC20A9F0F98235
:101780000A830E94AC179C838B8381E08D8391E058
:10179000812F8E21811101C090E049815A816B8196
:1017A0007C818D810E94B102F394EE0CF4E0FF1273
:1017B000E0CFF50131971083002311F043DFAACF6A
:1017C00001E0CACF1F93CF93DF931BD1EC018115AA
:1017D00022E5920708F050C0811540E5940708F013
:1017E000D9C0803E9105F8F48D3C910508F0ABC05E
:1017F000883A910580F4853A910508F096C08130C9
:10180000910521F00497813A910550F4CE01DF91C2
:10181000CF911F910895885A91094B9708F488C079
:10182000C0E0D0E0F3CF811550E49507E8F4C1158E
:1018300080E2D80708F0C7C0C83ED10538F3CE0112
:101840009A9581159F4160F78D2F7FD1182FCE017A
:101850009927D7D0212F30E0322F2227E901CC273A
:10186000DF71C82BD92BD2CF9927CBD0CC27DF70F3
:10187000C82BD92BD06ACACF803842E59407C8F567
:10188000803652E5950708F067C0C03482E5D80776
:10189000B0F08C2F86958695877020E2829FC001DC
:1018A0001124C37021E030E0A90102C0440F551F8C
:1018B000CA95E2F7EA01C82BD92BDC68A7CFC03262
:1018C00052E5D50708F041C08C2F8695869520E219
:1018D000829FC0011124C37021E030E0A90102C041
:1018E000440F551FCA95E2F7EA01C82BD92BDD68D2
:1018F0008DCF803C52E5950760F48F71C03AD24598
:1019000008F03FC090E0982F8827EC01C46FD06AA0
:101910007DCF805C9245809708F082CFDC2FCC276A
:10192000CC27DF71C06FD06A71CFA497D0646ECF1F
:10193000C85AD0E0CC0FDD1FC05BDE4F0990D881C4
:10194000C02DD46463CFD06561CFCF71D0E0DC2FE0
:10195000CC27C16FD06A5ACF86958695877020E2D2
:10196000829FC0011124C37021E030E0A90102C0B0
:10197000440F551FCA95E2F7EA01C82BD92BDA6844
:1019800045CFE3D0C82FD0E0DC2FCC27CC27DF71A8
:10199000D0623CCF8F71D9D065E0D695C7956A9556
:1019A000E1F7CF70D0E0DC2FCC27282F30E084FF88
:1019B00006C054E0220F331F5A95E1F73327C22B9C
:1019C000D32BD06923CF8D2F8F71BFD0182FCE018D
:1019D000992717D0212F30E0322F222722273F715D
:1019E000282B392BE901D4CF462F672F723020F4F2
:1019F000443010F40C946C0180E090E00895F4DF22
:101A0000E1CE803E9105D1F1C8F48133910509F40E
:101A10007FC048F48932910509F46FC08A3291057C
:101A200009F47DC0089589339105E1F0823891056C
:101A3000C9F08533910509F45BC00895843E910592
:101A4000D1F148F4823E910531F1833E910541F197
:101A500081EE90E00895863E9105C1F1873E9105A3
:101A6000E1F10895209184022370211165C0209135
:101A7000850223FF14C089E290E00895209184023A
:101A800020FD43C03091850230FF09C024FF4EC0C5
:101A900080E090E008952091840222FDF7CF089520
:101AA0002091840222FD45C03091850230FD44C062
:101AB00024FFF5CFEDCF2091850221FFF0CF80915B
:101AC000840284FDE5CF87EE90E0089520918402A2
:101AD00023FFE5CF24FDDCCFF6CF2091840223FD48
:101AE0002EC03091850231FFE3CF84EE90E008955F
:101AF0002091840225FFD3CFBECF2091840225FD03
:101B000021C02091850223FFCACF89E390E0089588
:101B10002091840226FFC3CF8AE290E008952091AD
:101B2000840226FFBCCF81E390E0089583EE90E02D
:101B3000089582EE90E0089580EE90E0089586EE9C
:101B400090E0089585E390E0AACF9091840292FFFF
:101B500010C041E0282F2471243009F040E031E02A
:101B6000282F2871283009F030E0431711F02CE0BD
:101B7000822793FF10C041E0282F2471243109F0FF
:101B800040E031E0282F2871283109F030E0431778
:101B900011F02CE082273091850230FF10C051E017
:101BA000282F2171213009F050E041E0282F2871C1
:101BB000283009F040E0541711F029E0822731FF66
:101BC00010C041E0282F2171213109F040E031E0BF
:101BD000282F2871283109F030E0431711F029E04F
:101BE000822794FD877E089580E00895CF939C011D
:101BF000FB01805E9245C1E0809738F4C581C11138
:101C000004C0822F8F710E94ED018C2FCF91089517
:101C1000089580E090E00E94E71E9C0181E0233E51
:101C20003E4F09F080E0089563EE7EEF80E090E0A3
:101C30000C94061F6FEF7FEF80E090E00C94061F7E
:101C4000CF93DF93EC0182E090E00E94DF1E888357
:101C5000DF91CF910895FC01608182E090E00C94C7
:101C6000EC1E83E090E00E94DF1E90E00895682F54
:101C700083E090E00C94EC1ECF93DF93EC0184E0C2
:101C800090E00E94E71E99838883DF91CF910895A9
:101C9000FC016081718184E090E00C94061FAB012F
:101CA000BC018FE090E00C94FE1EAB01BC0183E10F
:101CB00090E00C94FE1E682F8EE090E00C94EC1ED9
:101CC0000895FECF08950895FECF0895E82FF0E01F
:101CD000E857FD4F8081089508950F931F93CF9388
:101CE00026E831E061E070E0D90140E050E08D91FC
:101CF0008F3FA1F0E82FE295EF70F0E0C1A18F7067
:101D00008B0102C0000F111F8A95E2F7C801902FC6
:101D100090959C2391A392A1892B82A34F5F5F4F43
:101D20004430510521F72C5F3F4F11E02E38310729
:101D3000D9F6CF911F910F910895CF93DF939C0116
:101D4000C62FD0E084E0689FF0011124EA57FE4FCF
:101D500060E071E050E041914F3FE1F0A42FA29587
:101D6000AF70A05EB0E08C9190E04F7002C095958E
:101D700087954A95E2F7817081110CC0872F582B07
:101D80006F5F770F643039F7C20FD31F5883DF912D
:101D9000CF91089580E0F3CFA0DF109289021092D6
:101DA0008802109287021092860282E032D089CF98
:101DB000A2E0B0E0EEEDFEE00C948D1E1A821982D6
:101DC00060E0CE010196B9DF61E0CE010196B5DF9A
:101DD00042E050E0BE016F5F7F4F86E892E00E94D4
:101DE000C91E21E0892B71F420E042E068E872E02E
:101DF00086E892E00FD0182F67DF812F2296E3E06C
:101E00000C94A91E89819A819093870280938602FF
:101E1000ECCF0895A0E0B0E0E0E1FFE00C94881E74
:101E2000D82EE92EF62ED72F042FC22F222379F099
:101E300081E0809357020E94AC17909356028093E2
:101E4000550280E0CDB7DEB7E8E00C94A41EC09048
:101E50005702CC20B1F380915502909156020E9416
:101E60003D17059770F310E0A8016D2D7E2D8F2D85
:101E70009D2F0E94C91E892B41F0A8016D2D7E2D3A
:101E80008F2D9D2F0E94D61ECC2D109257028C2F85
:101E9000D9CF36CC0895FAD70E94501906DC0E949B
:101EA000681926DC0E9471190E947419F2DF0E94E1
:101EB0008A1909DCF9CF90939F0180939E010895C0
:101EC000F9CB0895E9E5F2E088E0DF011D928A95FB
:101ED000E9F7E8C0FC01228130E02F5F3F4F23701B
:101EE0003327438150E081E02417350709F080E073
:101EF00008950F931F93CF93DF93EC01162F042FB8
:101F0000E9DF811113C08A81FE01E80FF11D00FB9A
:101F100017F914838F5F83708A8388818F5F88832A
:101F200081E0DF91CF911F910F91089580E0F9CF6B
:101F3000CF93DF93FC01EA01A38182818A17B9F074
:101F4000AE0FBF2FB11D14968C9187FB992790F986
:101F50008F77DB018C93988383818F5F837083837A
:101F600081818F5F818381E0DF91CF91089580E04F
:101F7000FBCF462F682F89E592E0BBCFAB01BC01B8
:101F800089E592E0D5CF81E00895CF93DF93D62FF6
:101F9000FADFC82F882341F06AE070E089EAD111A6
:101FA00001C08AEA0E9460038C2FDF91CF910895CF
:101FB000A2E0B0E0EEEDFFE00C948C1E80915802A0
:101FC000882351F01092580280915B0280935C024A
:101FD0008091590280935A029FD072DF182F882374
:101FE00079F010E004C069818A81CFDF102FBE0133
:101FF0006F5F7F4FCE010296C1DF082F8111F3CFB3
:10200000812F2296E4E00C94A81E8FE891E00197BE
:10201000F1F700C00000089524B16E5C6F7081E09C
:1020200090E001C0880F6A95EAF7982F9095922367
:1020300094B995B1892B85B9089583B190E06E5C10
:102040006F7002C0959587956A95E2F78170089543
:102050000895CF93DF93C0E080916102C81750F0DC
:10206000D4DFC0E080916102C81760F0F1DFDF913A
:10207000CF91089560E08C2FCFDF61E08C2FCCDF13
:10208000CF5FEACF60E08C2FD8DFD82F61E08C2FB4
:10209000D4DFEC2FF0E0ED59FD4F880F8D2B8083BE
:1020A000CF5FE0CF81E080936102D3CF1F93CF93C6
:1020B000DF93182F440F642BC82FD0E0DE01AD59F9
:1020C000BD4FEC918E2F8370681711F1EE0FEE0F5C
:1020D000E62BEC93EF70F0E0E257FE4FCE59DD4F68
:1020E00090818881980F988394301CF060E0812F54
:1020F00040DF88818D3F1CF461E0812F3ADF8881C9
:10210000082E000C990B64E070E00E94651E888325
:10211000DF91CF911F910895CF93DF93C0E080911D
:102120006102C81718F0DF91CF91089561E08C2FFC
:1021300084DFD82F60E08C2F80DF682F4D2F8C2F0D
:10214000B5DFCF5FECCF4BCA089580E0BFDD817073
:1021500008952EDE8FE39CE90197F1F700C000009F
:1021600027DEF3DF882311F0EEDF41C70895F1CFBA
:102170000895CF93DF93EB0186319C47F9F4FED8A5
:102180009D81992391F08A7A91E0811101C090E0BC
:1021900090936402882339F085E349D5A0D980E083
:1021A000DF91CF91089589E2F8CF8091640288236E
:1021B00019F085E353D5F2CF89E2FCCF81E0F0CF6F
:1021C000CF93DF93EC01FB018581882309F4CBC019
:1021D0009E0130572332310508F0ABC084E892E00D
:1021E00008DAFE01E150F047E232F10520F4E85D43
:1021F000F04E0C94781E809184028160809384025A
:1022000092C0809185028860809385028CC0809105
:1022100084028260F3CF809184028460EFCF80914A
:1022200084028860EBCF809185028160EDCF809140
:1022300085028260E9CF809184028061DFCF809146
:1022400084028062DBCF809184028064D7CF0E94B9
:102250009705809184028068D1CF809184028C6040
:10226000CDCF809185028360CFCF809184028E7F15
:10227000C5CF80918502877FC7CF809184028D7FF3
:10228000BDCF809184028B7FB9CF80918402877FFC
:10229000B5CF809185028E7FB7CF809185028D7FEB
:1022A000B3CF809184028F7EA9CF809184028F7DED
:1022B000A5CF809184028F7BA1CF0E94970580914A
:1022C00084028F779BCF80918402837F97CF809108
:1022D00085028C7F99CF8091840282FB992790F9A7
:1022E00021E0922790FB82F990FB83F987CF8091C0
:1022F0008502982F909591708E7F892B90FB81F9A4
:1023000083CF90918402892F8F7B96FF806476CF54
:102310000E94970590918402892F97FB87F9805836
:102320006DCF81E06AD984E892E065D90E94970573
:1023300080E0DF91CF91089580E0F4CF9091840206
:10234000892F8F7E94FF806159CF90918402892FCD
:102350008E7F90FF816052CF90918502892F877F79
:1023600093FF886051CF81E0E4CF282F35EB230322
:10237000C001112497FF04C080589109892F089546
:1023800080589F4FFBCF80916B0280FF0DC0609102
:10239000090170E0660F771F60387105C0F561159F
:1023A0007105B9F1862F089581FF07C06091090179
:1023B00084E0689FB0011124EFCF82FF04C06091D8
:1023C000090188E0F6CF80916A028823E9F09091B4
:1023D00008016091090170E0891730F093E0660F01
:1023E000771F9A95E1F7D8CF869F9001879F300D90
:1023F000112483E0220F331F8A95E1F7692F70E0E3
:10240000C9010E94651EC8CF68E070E0CBCF8FE79E
:10241000089581E0089580916B0280FF0CC0609167
:10242000050170E07595679575956795611571055E
:1024300061F1862F089581FF06C06091050170E06B
:1024400075956795F3CF6091050170E082FD15C029
:10245000209169022223B1F090910401609105015D
:1024600070E0291750F4269FA001279F500D1124DA
:10247000692F70E0CA010E94651E60387105B0F2D4
:102480008FE7089561E070E0D4CF81E00895E3E341
:10249000E80FE331A0F5F0E0E65BF04E0C94781E17
:1024A00072DF819580936F0208956DDFFBCF6BDF44
:1024B000819580936E02089566DFFBCFACDF809339
:1024C00070020895A8DF8195FACFA5DF81958093EA
:1024D00071020895A0DFFBCF815D990B21E030E010
:1024E00001C0220F8A95EAF780916D02822B8093BA
:1024F0006D02089580916B02816080936B02089554
:1025000080916B028260F9CF80916B028460F5CF7D
:1025100040916E028D3C59F480916F0287FF0DC08F
:1025200010926F02442359F410926A0208C08E3C44
:1025300081F480916F0218169CF3442381F08091FE
:10254000700290917102892B811159C01092690219
:1025500008958F3C41F447FFF0CF10926E028091B6
:102560006F028823E0CF803D19F41416B4F3E5CF51
:1025700090917002893D29F41916FCF610927002B0
:10258000DCCF8A3D19F497FFD8CFF8CF9091710234
:102590008B3D29F497FFD1CF10927102CECF8C3DA5
:1025A00019F41916CCF3C9CF9FE2980F983090F424
:1025B000815D990B21E030E0B90102C0660F771F01
:1025C0008A95E2F7CB01809590916D0289238093E3
:1025D0006D02B3CF8D3D31F480916B028E7F80937D
:1025E0006B02ABCF8E3D21F480916B028D7FF7CFD4
:1025F0008F3D09F0A2CF80916B028B7FF0CF0895C1
:10260000ABD420916E0230916F02232B222321F054
:10261000809367029093680220917002309171025A
:10262000232B222321F080936502909366028CE68F
:1026300092E0ECC186E0ECE6F2E0DF011D928A95C3
:10264000E9F710926A021092690210926B020895E3
:10265000FC01828181110DC0838181110AC08481B6
:10266000811107C081E09581911101C080E08170E6
:10267000089581E0FCCFA6E0B0E0E1E4F3E10C9442
:102680008B1E86E0ECE6F2E09E012F5F3F4FD90102
:1026900001900D928A95E1F710926E0210926F02EE
:1026A00010927002109271028B819C81892B89019A
:1026B000882389F08091670290916802DED39C01A3
:1026C00080916A028823A9F140910A0150E04217E3
:1026D000530708F43BC08D819E81892B882391F09C
:1026E0008091650290916602C8D39C018091690235
:1026F000882309F460C04091060150E04217530757
:1027000008F467C0B8018CE692E0D8D2811104C009
:102710008CE692E09DDF811173DF86E0F801ACE684
:10272000B2E001900D928A95E1F72696E5E00C94CF
:10273000A71E40910B019AE0499FA0011124421766
:10274000530748F68F5F80936A0202C08F3FD1F72C
:10275000FB80FF2051F017DE91E01F140CF09FEF7B
:10276000899F802D112480936E02FC80FF2051F000
:102770000ADE91E01F140CF09FEF899F802D112439
:1027800080936F0280916E02882309F4A4CFF090A9
:102790006F02FF2009F49FCFE8DD811101C081E0C5
:1027A00080936E028F2DE1DD882319F080936F02F4
:1027B00092CF81E0FBCF409107019AE0499FA001B1
:1027C00011244217530708F09DCF8F5F8093690251
:1027D00002C08F3FD1F7FD80FF2051F01CDE91E059
:1027E0001F140CF09FEF899F802D1124809370029D
:1027F000FE80FF2051F00FDE91E01F140CF09FEFE0
:10280000899F802D1124809371028091700288230A
:1028100009F478CFF0907102FF2009F473CFA5DDA1
:10282000811101C081E0809370028F2D9EDD88238D
:1028300019F08093710266CF81E0FBCF0F931F9355
:10284000CF93DF93C42FD22FFC0185818823C1F061
:102850004093740281D3909373028093720280E25A
:102860008C0F883040F4C77081E001C0880FCA9592
:10287000EAF70E947D03DF91CF911F910F91089598
:102880001091740214133BC08091720290917302F4
:10289000F4D2883C910598F5C0E2CD0F1D1741F1A7
:1028A00080E2810F883040F4177081E001C0880F0A
:1028B0001A95EAF70E948203C83020F0802F0E9408
:1028C0007603D9CF91E08D2F877001C0990F8A953B
:1028D000EAF7892F0E947D03802F0E947603D7702C
:1028E00081E001C0880FDA95EAF70E948203C3CF26
:1028F000802F0E947603C83008F0BDCFF0CF80E271
:102900008C0F883008F0B7CFC77081E001C0880F06
:10291000CA95EAF7EACF0F93FC01CB01E851FC47D7
:10292000E730F10588F5E35AF04E0C94781E06E284
:1029300021EE41EE6AE17CE781DF80E00F910895AE
:1029400007E225EE45EE6BE17CE7F6CF06E221EEED
:1029500040EE68E17CE7F0CF07E225EE44EE69E166
:102960007CE7EACF06E221EE42EE6CE17CE7E4CFC1
:1029700007E225EE46EE6DE17CE7DECF08E221E0DE
:1029800045EE6EE17CE7D8CFFB0185818111109285
:10299000740281E0D3CF90937A02809379020895F4
:1029A0001DD2982F81E0913009F080E00895E091E8
:1029B0007902F0917A02309739F00190F081E02DA0
:1029C000309711F00995089580E00895E09179021B
:1029D000F0917A02309731F00280F381E02D309748
:1029E00009F009950895DC01E0917902F0917A02ED
:1029F000309759F084819581892B39F086E08C934A
:102A00000480F581E02DCD0109950895DC01E09168
:102A10007902F0917A02309759F086819781892B5B
:102A200039F082E08C930680F781E02DCD01099585
:102A30000895A3E0B0E0EFE1F5E10C948E1E9C0157
:102A4000809177029091780282179307B1F03093CA
:102A5000780220937702E0917902F0917A02309720
:102A600061F00084F185E02D309739F083E08983AF
:102A70003B832A83CE01019609952396E2E00C94CC
:102A8000AA1EA3E0B0E0E7E4F5E10C948E1E9C01E1
:102A9000809175029091760282179307B1F030937E
:102AA000760220937502E0917902F0917A023097D4
:102AB00061F00084F185E02D309739F084E089835E
:102AC0003B832A83CE01019609952396E2E00C947C
:102AD000AA1ECF93DF93C0910201D09103012296E9
:102AE0005FDF8823A1F08091840287FF10C0C0912E
:102AF0000001D091010122969DE180E0288121967C
:102B000021118F5F9150D0F7DF91CF91089595E01B
:102B1000F4CFCF93C82F882311F142DF882311F11E
:102B20008091840287FF1EC08C2F8695869586959E
:102B3000C03FA8F4E0910001F0910101E80FF11D00
:102B4000228130E0C77081E090E002C0880F991FB9
:102B5000CA95E2F72823392381E0232B09F480E08A
:102B6000CF9108958091020190910301FC0132966A
:102B7000089621912C1721F0E817F907D1F7EFCF2C
:102B800081E0EECF9C01FC0132968FEF90E0419105
:102B9000461751F08F3F19F4411101C0892F9F5FF3
:102BA0009630A9F78F3F09F40895280F311D87FD4E
:102BB0003A95F901628308959C01FC013296285FE1
:102BC0003F4F8191861303C0DF0111971C92E217DA
:102BD000F307B9F70895FC01862F869586958695AB
:102BE000603F60F4E80FF11D677021E030E001C044
:102BF000220F6A95EAF78281822B82830895FC0175
:102C0000862F869586958695603F80F4E80FF11DA6
:102C1000677081E090E09C0102C0220F331F6A952B
:102C2000E2F7B90160958281682362830895CF93AA
:102C3000C82FB6DE6C2F882359F08091840287FF5D
:102C400007C08091000190910101C5DFCF910895E7
:102C5000809102019091030195DFF8CFCF93C82FA7
:102C60009FDE6C2F882359F08091840287FF07C074
:102C70008091000190910101C2DFCF910895809170
:102C800002019091030198DFF8CF8ADE882379F062
:102C90008091840287FF0BC0E0910001F091010157
:102CA00032968EE1DF011D928A95E9F70895E09151
:102CB0000201F0910301329686E0F4CFDC01FB01C2
:102CC00011969C9111978181981322C012968C9134
:102CD0001297882319F0928189131AC013968C9148
:102CE0001397882319F09381891312C015968C913C
:102CF0001597882319F0958189130AC014969C9121
:102D0000992321F081E02481291303C080E001C0D0
:102D100081E0817008950895FECF0895A4E0B0E0A9
:102D2000E3E9F6E1FBC78F5F80930F0180910C010F
:102D300090910D01A0910E01B0910F01BC01CD0148
:102D4000EBDF2496E2E00C94AA1EA4E0B0E0EAEAED
:102D5000F6E1E4C783E080930F0180910C0190912C
:102D60000D01A0910E01B0910F01BC01CD01D4DF86
:102D70002496E2E0EFC7D2CF0895A4E0B0E0E2EC01
:102D8000F6E1CCC781E080930F0180910C01909116
:102D90000D01A0910E01B0910F01BC01CD01BCDF6E
:102DA0002496E2E0D7C7E9CF0895A4E0B0E0EAEDC9
:102DB000F6E1B4C791E0811101C090E090930E015B
:102DC00080910C0190910D01A0910E01B0910F0125
:102DD000BC01CD01A1DF2496E2E0BCC780910E01C9
:102DE0000895A4E0B0E0E6EFF6E198C780930D0106
:102DF00080910C0190910D01A0910E01B0910F01F5
:102E0000BC01CD0189DF2496E2E0A4C780910D01C9
:102E10000895A4E0B0E0EEE0F7E180C780930C01F4
:102E200080910C0190910D01A0910E01B0910F01C4
:102E3000BC01CD0171DF2496E2E08CC780910C01CA
:102E4000089508950895FECF089508950895F9CF3F
:102E50000895FBDF0E94D80EF9DF80E00E94660E25
:102E6000811109C081E00E94660E982F81E09111C6
:102E700003C080E0089581E00895CF93DF93EC01D3
:102E80006BD08C1B9D0BDF91CF91089585B7806827
:102E900085BF85B7806885BF08951F921FB61F92B2
:102EA00011248F939F93AF93BF9380917B028111E5
:102EB00013C080918A0290918B02A0918C02B091F4
:102EC0008D024196A11DB11D80938A0290938B02C1
:102ED000A0938C02B0938D02BF91AF919F918F917F
:102EE0001F901FBE1F90189580919202843031F17F
:102EF0000E94790210927B0288E190E020E40FB6F4
:102F0000F894A895809360000FBE2093600083B76B
:102F1000817F846083BF83B7816083BF7894889505
:102F200083B78E7F83BF0FB6F894A8958091600019
:102F3000886180936000109260000FBE08950E9427
:102F400097050C947D0282E084BD93E095BD9AEFD5
:102F500097BD80936E0008952FB7F89480918A02F0
:102F600090918B02A0918C02B0918D022FBF089599
:102F7000A4E0B0E0EDEBF7E1D1C68FB7F894209173
:102F80008A0230918B0240918C0250918D022983EC
:102F90003A834B835C838FBF69817A818B819C816B
:102FA0002496E2E0D7C678941F921FB61F92112490
:102FB0008F939F93AF93BF9380918A0290918B02DE
:102FC000A0918C02B0918D020196A11DB11D80933C
:102FD0008A0290938B02A0938C02B0938D02BF91D2
:102FE000AF919F918F911F901FBE1F90189581E008
:102FF0008093E00080E28093D8001092C9008FE1B6
:103000009EE40197F1F700C0000087E090EBDC013F
:1030100080939B0290939C02A0939D02B0939E028A
:1030200088E19CE00FB6F894A895809360000FBEED
:1030300090936000FFCF88E19CE00FB6F894A895CC
:10304000809360000FBE90936000FFCF282FCB01CC
:10305000BA01309192023430D9F42F702093E900F4
:103060002FEF3091E80035FD07C035ED3A95F1F7C7
:10307000000021502111F5CF2091E80025FF08C064
:1030800040E050E0BDD18091E8008E778093E80069
:103090000895BC0143E050E082E0D8CFBC0146E097
:1030A00050E082E0D3CFBC0140E250E082E0CECFDE
:1030B000CF93DF93D82FC92F91DE48E050E06D2FDA
:1030C0007C2F81E0C3DF88E0ED2FFC2FACE7B2E07E
:1030D00001900D928A95E1F7DF91CF91089580914B
:1030E0009102811107C012D369D38091E2008460FC
:1030F0008093E20008951092910208953EDE81E0EF
:1031000054CE60918E0281E0611101C080E01DCE3D
:103110009091920281E0943009F080E060918E02FB
:103120002ACE42E061EC81E06DD242E261EC82E0C5
:1031300069D29091920281E0943009F080E0609130
:103140008E02ECCD80919402893081F148F4823076
:1031500009F496C0833009F457C0813041F00895D6
:103160008A3009F480C08B3009F468C008958091DA
:103170009302813A09F047C08091E800877F8093ED
:10318000E8008091970290919802892B59F060E0B5
:1031900080E090E070E081D18091E8008B778093AF
:1031A000E800089568E08CE792E0F4CF8091930204
:1031B000813249F58091970290919802029718F513
:1031C0008091E800877F8093E8008091E80082FF8B
:1031D00016C09091F3008091F200029731F4809133
:1031E000F100813011F0863019F48091F100F9DDA1
:1031F0008091E8008B778093E80038D204C08091FA
:1032000092028111E2CF089580919302813AD9F719
:103210008091970290919802892BA9F78091E800FC
:10322000877F8093E8008091E80080FFFCCFD6DDA7
:103230008093F1008091E8008E77DDCF809193023A
:10324000813209F78091970290919802892BD9F6E3
:103250008091E800877F8093E80008D280919502F2
:10326000A4DD0C94970580919302813261F68091E0
:10327000E800877F8093E800F9D180919602C9CD5C
:1032800080919302813A09F0BECF8091E800877F58
:103290008093E8008091E80080FFFCCFCFDDC8CFAD
:1032A00084B7877F84BF0FB6F894A895809160009B
:1032B000886180936000109260000FBE80E890E00B
:1032C0000FB6F89480936100909361000FBE6BCDB0
:1032D0001DD274D2E2EEF0E0808184608083789425
:1032E000DBC480E191E057CB80919202853029F4D4
:1032F00080919202853011F022CE0895F5DDA9DD8E
:103300008823B1F380919002882391F363D00E94C7
:103310009705EECF08959A014091990250919A0233
:1033200000C0AC01CB01D901252F33272330310553
:10333000E1F058F421303105C9F122303105D9F1DD
:1033400080E090E020E030E01EC02132310521F124
:1033500022323105A9F7892BC1F16130710581F75E
:1033600086EB90E02FE331E00EC0CA01992741308F
:1033700069F08230910569F0EEEEF0E0892B01F7FB
:10338000849190E09F012D933C930895ECEDF0E043
:10339000F7CFECEBF0E0F4CF892B91F061307105C1
:1033A00079F689E090E02DE131E0EDCF82E190E027
:1033B0002DE231E0E8CF8BE390E022EF30E0E3CF85
:1033C00089E090E024E031E0DECF84E490E025EF76
:1033D00031E0D9CF80E189BD82E189BD09B400FE29
:1033E000FDCF8091D8008F7D8093D8008091E00040
:1033F00082608093E0008091E00081FDFCCF089521
:10340000AF92BF92CF92DF92FF920F931F93CF9311
:10341000DF936C01EB018A0148D1F82E811123C0A2
:103420000115110539F0F80180819181C81BD90B74
:10343000C80ED91EA12CB12C2097A9F08091E800CC
:1034400085FD21C08091E8008E778093E80001150A
:103450001105A1F0F801808191818A0D9B1D918356
:10346000808385E0F82E8F2DDF91CF911F910F91F2
:10347000FF90DF90CF90BF90AF90089516D1882332
:10348000E9F2F82EF0CFF60181916F018093F100FF
:103490002197FFEFAF1ABF0ACFCFFC019B018091AC
:1034A000990290919A028617970718F0672B61F09E
:1034B000C90140E0009771F441110CC08091E8000F
:1034C00082FF35C080E008958091E8008E77809378
:1034D000E800EECF209192022223A9F12530A9F134
:1034E0002091E80023FD2DC02091E80022FDE6CFC9
:1034F0002091E80020FFDECF3091F3002091F20010
:10350000009719F02830310558F041E02830310596
:1035100009F040E02091E8002E772093E800CACF20
:1035200041914093F10001972F5F3F4FE9CF809188
:103530009202882341F0853041F08091E80083FFBA
:10354000BDCF81E0089582E0089583E00895FC01F5
:103550009B018091990290919A028617970718F023
:10356000672B61F0C90140E0009771F441110CC074
:103570008091E80082FF36C080E008958091E800E5
:103580008E778093E800EECF209192022223B1F152
:103590002530B1F12091E80023FD2EC02091E800F4
:1035A00022FDE6CF2091E80020FFDECF3091F3002E
:1035B0002091F200009719F02830310558F041E0D1
:1035C0002830310509F040E02091E8002E77209363
:1035D000E800CACF44914093F100319601972F5FE4
:1035E0003F4FE8CF80919202882341F0853041F02F
:1035F0008091E80083FFBCCF81E0089582E00895C8
:1036000083E00895982F973028F08F708093E90019
:1036100081E008959093E900242F762F50E09817C9
:1036200031F07091EC002091ED005091F00021FDFF
:1036300002C09F5FE8CF3091EB003E7F3093EB00FC
:103640003091ED003D7F3093ED003091EB00316023
:103650003093EB007093EC002093ED005093F0005A
:103660002091EE0027FDE5CF80E008958091930240
:1036700087FF13C08091E80082FF06C08091E800B8
:103680008B778093E80004C0809192028111F2CF81
:103690000895809192028823D9F38091E80080FFF9
:1036A000F8CF8091E8008E77ECCF2091E400309144
:1036B000E50095E6A9018091EC008170882331F046
:1036C0008091E80080FF06C080E008952091E80026
:1036D00022FD1BC080919202882391F0853091F0E9
:1036E0008091EB0085FD10C02091E4003091E50051
:1036F0004217530701F391509111DCCF84E00895F4
:1037000082E0089583E0089581E0089567D06ED047
:10371000E0EEF0E0808181608083E8EDF0E0808180
:103720008F77808319BCA7EDB0E08C918E7F8C934E
:1037300080818F7E80831092910208950F931F9352
:10374000CF93DF934BD052D0C8EDD0E088818F77F4
:10375000888388818068888388818F7D888319BC6D
:103760001092920210928E021092900210928F028A
:1037700000EE10E0F80180818B7F8083888181607A
:10378000888342E060E080E03DDFE1EEF0E08081B0
:103790008E7F8083E2EEF0E0808181608083808193
:1037A00088608083F80180818E7F8083888180613A
:1037B0008883DF91CF911F910F910895E8EDF0E09C
:1037C00080818F7E8083E7EDF0E08081816080835F
:1037D00084E082BF81E080939102B0CFE8EDF0E019
:1037E00080818E7F80831092E20008951092DA002B
:1037F0001092E10008951F920F920FB60F921124BC
:103800002F933F934F935F936F937F938F939F93E8
:10381000AF93BF93EF93FF938091E10082FF0AC0C3
:103820008091E20082FF06C08091E1008B7F80934F
:10383000E10031D28091DA0080FF18C08091D80079
:1038400080FF14C08091DA008E7F8093DA0080912F
:10385000D90080FF8FC080E189BD82E189BD09B4B4
:1038600000FEFDCF81E08093920239DC8091E1007F
:1038700080FF18C08091E20080FF14C08091E200B8
:103880008E7F8093E2008091E20080618093E2006D
:103890008091D80080628093D80019BC85E0809325
:1038A00092022FDC8091E10084FF28C08091E20029
:1038B00084FF24C080E189BD82E189BD09B400FE96
:1038C000FDCF8091D8008F7D8093D8008091E1005A
:1038D0008F7E8093E1008091E2008F7E8093E200F2
:1038E0008091E20081608093E20080918E028823C3
:1038F00009F445C084E0809392020ADC8091E100E3
:1039000083FF27C08091E20083FF23C08091E10004
:10391000877F8093E10082E08093920210928E0272
:103920008091E1008E7F8093E1008091E2008E7FA4
:103930008093E2008091E20080618093E20042E0A7
:1039400060E080E05FDE8091F00088608093F000AE
:10395000D5DBFF91EF91BF91AF919F918F917F91B7
:103960006F915F914F913F912F910F900FBE0F90EC
:103970001F90189519BC10929202BDDB77CF8091F1
:10398000E30087FF02C083E0B6CF81E0B4CF1F928F
:103990000F920FB60F921124FF920F931F932F9344
:1039A0003F934F935F936F937F938F939F93AF93C7
:1039B000BF93CF93DF93EF93FF9309EE10E0F801ED
:1039C0008081C091EC00C795CC27C7958F70FC2EE5
:1039D000F82A1082C0EFD0E08881877F88837894AE
:1039E0001ED0F8011082888188608883CF2DCF7027
:1039F000C083FF91EF91DF91CF91BF91AF919F91E4
:103A00008F917F916F915F914F913F912F911F9176
:103A10000F91FF900F900FBE0F901F901895AAE284
:103A2000B0E0E4E1FDE179C183E992E0FC010196B7
:103A30002091F100208322E08B399207B9F782DBD5
:103A40008091E80083FF37C08091930290919402A7
:103A50009A3088F5E92FF0E0EC59F04E49C18038F2
:103A600089F0823841F5809197028F70873018F580
:103A70008093E9008091EB0085FB882780F9109204
:103A8000E90006C080918F029091900291118260AE
:103A90009091E800977F9093E8008093F100109256
:103AA000F1008091E8008E7722C0811115C08091CD
:103AB0009502813001F18091E80083FF0AC0809176
:103AC000E800877F8093E8008091EB00806280931C
:103AD000EB00AA96E3E03DC1823069F78091950240
:103AE000882381F01092E9008091E800877F80931D
:103AF000E800BCDDE0CF81E0933009F080E0809306
:103B00009002F0CF809197028F702FEF280F263010
:103B100090F68093E9002091EB0020FFE3CF9330F3
:103B200031F48091EB0080628093EB00DBCF9091C9
:103B3000EB0090619093EB0021E030E0A90102C01E
:103B4000440F551F8A95E2F74093EA001092EA006D
:103B50008091EB008860E8CF8111ADCF1091950284
:103B60001F778091E3008078812B8093E300809120
:103B7000E800877F8093E80079DD8091E80080FF8E
:103B8000FCCF8091E30080688093E30083E0111113
:103B900001C082E0809392028ECF8058823008F07C
:103BA0008ACF80919502909196028C3D53E09507C3
:103BB00091F583E08A838AE289834FB7F894DE0126
:103BC000139620E03EE051E2E32FF0E050935700DF
:103BD000849120FF03C082958F703F5F8F708A3081
:103BE000C0F0895C90E08D939D932F5F243161F745
:103BF0004FBF8091E800877F8093E8006AE270E021
:103C0000CE0101964ADC8091E8008B778093E80032
:103C100052CF805DE7CF6091970270919802AE011C
:103C20004F5F5F4F78DBBC01892B09F444CF809153
:103C3000E800877F8093E80089819A8188DCE3CF60
:103C4000803809F038CF8091E800877F8093E800C2
:103C500080918E028093F10024CF81112CCF90911E
:103C60009502923008F027CF8091E800877F8093FB
:103C7000E80090938E02FADC80918E02882329F06E
:103C800084E0809392024DDA16CF8091E30087FDA5
:103C9000F7CF81E0F6CF0895CF93809192028823E9
:103CA00091F08091E900C091EC00C795CC27C795B1
:103CB0008F70C82B1092E9008091E80083FDAFDE81
:103CC000CF70C093E900CF91089597FB072E16F4AB
:103CD000009406D077FD08D048D007FC05D03EF40C
:103CE000909581959F4F0895709561957F4F0895A8
:103CF000EE0FFF1F0590F491E02D09942F923F9253
:103D00004F925F926F927F928F929F92AF92BF92EB
:103D1000CF92DF92EF92FF920F931F93CF93DF9397
:103D2000CDB7DEB7CA1BDB0B0FB6F894DEBF0FBEF4
:103D3000CDBF09942A88398848885F846E847D8441
:103D40008C849B84AA84B984C884DF80EE80FD8043
:103D50000C811B81AA81B981CE0FD11D0FB6F894B9
:103D6000DEBF0FBECDBFED010895AA1BBB1B51E105
:103D700007C0AA1FBB1FA617B70710F0A61BB70BDB
:103D8000881F991F5A95A9F780959095BC01CD0180
:103D90000895FB01DC0104C08D910190801921F48C
:103DA00041505040C8F7881B990B0895FB01DC0176
:103DB00002C001900D9241505040D8F70895F999F2
:103DC000FECF92BD81BDF89A992780B50895A8E1EC
:103DD000B0E042E050E020C0262FF999FECF92BD1E
:103DE00081BDF89A019700B4021639F01FBA20BDC0
:103DF0000FB6F894FA9AF99A0FBE08950396272FF2
:103E0000ECDFEADF252FE9DF242FE7CF0196272F0C
:103E1000E4DFE2CFDC01CB01FC01F999FECF06C063
:103E2000F2BDE1BDF89A319600B40D924150504078
:103E3000B8F70895F894FFCFC203C203F903F9035A
:103E400052046F04EA03EA037304E604F304F30480
:103E50003511A5113D1107110B1141110F1145111C
:103E600051111B119E111F1155112311591181114F
:103E700027115D1188112D1163116B111311491157
:103E800017114D1131116711771191119C11011109
:103E90003911AC115012551257125C126C126C127F
:103EA0006C126C126C126C126C126C125E1262123A
:103EB00065126A127A1280128412A614AC14971436
:103EC000A014B214B814BE142F1D551D5B1D551D32
:0C3ED0005B1DAC1DCD1D5B1D201E2D1EBA
:103EDC001A023A02280850011E0A140100000100BF
:103EEC000617581853184E184918E200E900EA0052
:103EFC00B500B600B700CD008301CC008A01920159
:103F0C0094012102230224022502260227022A02FE
:103F1C00B300B4006F0070009F01CB019F02A002A0
:103F2C00E200E900EA00B500B600B700CD0083015D
:103F3C00CC008A0192019401210223022402250261
:103F4C00260227022A02B300B4006F0070009F0102
:103F5C00CB019F02A002F4F5F6FFF731343500FFD8
:0E3F6C000100010000FFFF0000010001FF0046
:00000001FF
