:1000000095C10000CCC10000CAC10000C8C10000F9
:10001000C6C10000C4C10000C2C10000C0C10000D0
:10002000BEC10000BCC100000C9429210C94F52134
:100030000C94101CB4C10000B2C10000B0C100009B
:10004000AEC10000ACC10000AAC10000A8C1000000
:10005000A6C100000C94871CA2C10000A0C1000032
:100060009EC100009CC100009AC1000098C1000020
:1000700096C1000094C1000092C1000090C1000030
:100080008EC100008CC100008AC1000088C1000040
:1000900086C1000084C1000082C1000080C1000050
:1000A0007EC100007CC100007AC10000B200B30034
:1000B00046000000AC00AE00AB00A800000000004D
:1000C000000000002A2B28000000000000000000B3
:1000D0000000000000000029000000002C1E342059
:1000E000212224342627252E362D3738271E1F207F
:1000F0002122232425263333362E37381F040506C4
:100100000708090A0B0C0D0E0F1011121314151607
:100110001718191A1B1C1D2F3130232D3504050605
:100120000708090A0B0C0D0E0F10111213141516E7
:100130001718191A1B1C1D2F3130354C00000000F8
:1001400000000000000000000000000000000000AF
:10015000000000000000000000000000000000009F
:100160007E0F00D4FFFFFFC7000000781E03680069
:1001700061006E0064007700690072006500640031
:100180002F0065006C0078007A0000001003420028
:100190006100720074006F0073007A0000000403B5
:1001A000090409025B00030100A0FA090400000130
:1001B000030101000921110100012244000705810A
:1001C00003080001090401000203000000092111D5
:1001D0000100012222000705820320000107050318
:1001E000032000010904020001030000000921119D
:1001F00001000122B600070584032000011201005E
:100200000200000008EDFE6060000101020001062E
:1002100060FF0961A1010962150026FF00952075A4
:100220000881020963150026FF00952075089102D8
:10023000C005010902A10185020901A100050919F2
:10024000012908150025019508750181020501099C
:100250003009311581257F95027508810609381509
:1002600081257F950175088106050C0A38021581E4
:10027000257F950175088106C0C005010980A1018F
:10028000850319012AB700150126B70095017510DD
:100290008100C0050C0901A101850419012AA002F1
:1002A000150126A002950175108100C005010906FF
:1002B000A1018506050719E029E715002501950824
:1002C000750181020507190029EF1500250195F038
:1002D000750181020508190129059505750191022D
:1002E000950175039101C005010906A101050719D2
:1002F000E029E71500250195087501810295017532
:100300000881010507190029FF150026FF00950641
:1003100075088100050819012905150025019505B5
:1003200075019102950175039101C00011241FBE52
:10033000CFEFDAE0DEBFCDBF04B603FE19C0809177
:10034000AC029091AD02A091AE02B091AF028730A5
:10035000904BA740B04B61F41092AC021092AD02EA
:100360001092AE021092AF02E0E0F8E3099500C0EF
:1003700011E0A0E0B1E0E8E7F9E402C005900D92D9
:10038000A23BB107D9F722E0A2EBB1E001C01D9278
:10039000AC3AB207E1F70E946B0F0C94552430CEB3
:1003A000811113C0623088F4443078F484E0689F8F
:1003B000F0011124E40FF11DEE0FFF1FE455FF4F74
:1003C00085919491282F822F089521E090E0FBCF12
:1003D00081E0089581E00895FBCF089581E00895BC
:1003E00081E0089581E00895FDCF0895089508956E
:1003F000FDCF089508950895A6E0B0E0E2E0F2E0B0
:100400000C94B92349835A839E833091B901898121
:100410009A81311117C03E81311589F0211579F08B
:10042000FBD4182F682F89819A81D6D469817A816B
:10043000812F0E94260D2696E3E00C94D523DCD470
:10044000182FF4CFE9D469817A81F3CFFC01262FEC
:10045000408151816281738184819581CDCFCF9319
:10046000DF93EC0161E0F2DFBE01B4DF811529F01A
:1004700061E0CE01EBDFBE01AFDFDF91CF910895E8
:100480000F931F93CF93DF93EC0160E0DFDF8C01CC
:10049000BE01ADDFBE01C801ABDFDF91CF911F917F
:1004A0000F91089591E001C0990F8A95EAF7892F7D
:1004B000F2C3CF93C82F81E00C2E01C0880F0A949D
:1004C000EAF70E94480B8C2FEDDFCF91089581E071
:1004D000089581E00895FBCF0895CF93C82F8CD362
:1004E0008C2FF7DF8C2FF7DF8FEF94E32CE0815018
:1004F00090402040E1F700C00000CF91089581E0D6
:10050000ECDF0C94AB1C80E0E8DF0C94CF1C0F9365
:100510001F93CF93DF938C0161E098DFEC01B8016A
:100520005FDF811509F44DC0B801CE015DDF811593
:1005300009F447C0B801CE010E94A318811509F43F
:1005400040C0B801CE010E94E3178115D1F1B80176
:10055000CE010E9458138115A1F1B801CE010E946D
:100560002F13811571F1B801CE010E942318811556
:1005700041F1B801CE010E94260E811511F1F8015A
:100580008581811581F0CA358CE7D80721F170F497
:10059000C1308CE7D807E9F0C3308CE7D807B9F051
:1005A000C115DC4769F0C80119DF0CC0CB358CE7F9
:1005B000D807A1F0CC35DC47B1F70E940A0BF3CF86
:1005C0009EDF80E0DF91CF911F910F9108950E94EF
:1005D0003D0B99DFF6CF0E94110BE5CF0E94130B64
:1005E000E2CF08DF0E94E61B17C018D004DF0C948E
:1005F000EA1B81E008950895CF93DF93C82FF9DFB8
:10060000D82F811511F08C2FF6DF8D2FDF91CF9130
:1006100008950895F1CF089580E0FCCF0E94D1198C
:10062000F9CFCF930E94D119C82F8091B4018C17B4
:1006300071F0C093B4010E947B1C6093B50170936C
:10064000B6018093B7019093B8018C2FE3DFCF916F
:100650000895ADE0B0E0EFE2F3E00C94BA234887F0
:1006600059876A877B878C879D879111FED61F8269
:1006700086E0FE0138969E012F5F3F4FD901019021
:100680000D928A95E1F78D8181110CC029813A8103
:100690004B815C816D817E818F8132D62D96E2E027
:1006A0000C94D623CE010196DADE8111EFCFF6CF7E
:1006B000FC012481213019F480819181D9C30895EE
:1006C000611521F00E94B4140C9469150E94F41471
:1006D000FBCFCF93C82F811581F08450813A78F4F5
:1006E0008C2F0E94921A811521F08C2F0E942F1BB3
:1006F00047D78C2F0E94181B43D7CF9108958C2F7A
:10070000805E883048F481E0C1FD84E0C0FD880F40
:10071000C2FD82958BD6F0CF8C2F855A833030F472
:100720008C2F8452990B0E94111AE7CFEC2FE85AB4
:10073000EB3150F4F0E0EE0FFF1FE15EFE4F8081E1
:1007400091810E94381AD9CF8C2F8D5C8331A8F605
:1007500061E08C2FB5DFD1CF811559F1982F9450DE
:10076000913A18F40E942F1B0BC7982F905E983077
:1007700050F4982F81E091FD84E090FD880F92FD68
:1007800082955AD6F1CF982F955A933020F480E075
:1007900090E00C94111A982F985A9B3120F480E025
:1007A00090E00C94381A982F9D5C933110F460E01F
:1007B00087CF08951F93CF93DF93182FEB0189DF25
:1007C000209731F4812FC8DFDF91CF911F910895D9
:1007D0008FE99FE00197F1F700C000002197F0CF6B
:1007E00060E570E0893311F060E070E0E3CF8115DF
:1007F00011F01CD6C5C60895811511F01DD6C0C6CE
:100800000895A0E0B0E0E7E0F4E00C94B4236C01BC
:10081000D62FC72FFC011581068102950F70FBD5DD
:10082000E82E8115E9F0E12E1115D1F08C2F807F93
:10083000803461F08D2F805E8830E0F08C2F807ED8
:10084000803221F4D230B0F00115A1F080919602EF
:1008500082FF10C082E0B8D6DED591E08927E82E6D
:10086000EC2FE295EF70C03C78F5F0E0E95AFB4DD3
:100870000C949D23E12CF4CF0C2F0F70C03110F09D
:100880000295007F111581F0011549F08D2F805ED2
:10089000883010F0D11105C0802FC8D571D68D2FAA
:1008A00040C0802FD4D5FACF8D2F56DF011561F0CF
:1008B0008D2F805E883010F0D11103C0802FBCD501
:1008C00002C0802FCAD55CD6E11409F4AEC09FD512
:1008D00080FDABC0F601158294D5FFD1C6015DD174
:1008E00090D504D2A2C08C2F8F70F82EC07FC0325A
:1008F00019F0F29480EFF822D13038F079F1111527
:1009000009F438C00115C9F0CACF8091960282FD62
:1009100010C0111541F0F11419F08F2D87D530D684
:1009200080E0D7DED1CF80E017DFF11469F28F2DA0
:10093000C6CF111551F0013018F48F2D58DFC4CFF8
:1009400009F0C2CF8F2DA5D5BFCF0111BDCF8F2DFF
:1009500053DF8F2DA9D58F2D8ED5B6CF111521F050
:10096000063008F0B1CFE9CF053008F0ADCF8F2DBC
:1009700043DFAACF0115D9F3D93349F48FEF97EEAE
:1009800023E0815090402040E1F700C000008D2F0F
:10099000E3DE9ACF8C2F869586958370813060F048
:1009A00009F092CF8D2F9C2F9370111102C080E01F
:1009B00090E00E94381A88CF8D2F9C2F93701111D0
:1009C00002C080E090E00E94111A7ECF612F8D2F2F
:1009D00077DE7ACF8C2F837099F5111123C09D2F6C
:1009E000929596959770990F990F4D2F4F70092EEC
:1009F00001C0440F0A94EAF78D2F8071D4FF07C01D
:100A00002FE001C0220F9A95EAF7822F8095C695B4
:100A1000C695C370842BC23079F0C33079F0C130F1
:100A200049F03FD10E94D119F5DDCDB7DEB7E8E03E
:100A30000C94D02332D1F6CF38D1F4CF2CD1F2CFD1
:100A4000111531F1C0FFEECF9D2F929596959770BD
:100A5000990F990F4D2F4F70092E01C0440F0A9422
:100A6000EAF78D2F8071D4FF07C02FE001C0220F5D
:100A70009A95EAF7822F8095C695C695C370842B08
:100A8000C23059F0C33059F0C13029F047D1CACF34
:100A9000823040F2D9CF3ED1C5CF44D1C3CF0FD1A0
:100AA000C1CFCF70111529F08C2F17D18D2F9FDE5C
:100AB000B9CF8D2FA1DE8C2F19D1B4CFD23F31F118
:100AC00068F4D03FC1F0D13F89F0111509F43EC060
:100AD000011509F438C08D2FFCDDA4CFD33FE1F020
:100AE000D43F99F78091960282FD1EC08C2F8F71A2
:100AF000111511F30FC0111539F0053008F092CF20
:100B00008C2F8F71FED08ECF0630F8CF8C2F8F7147
:100B10001111D2CFE2D086CF111521F08C2F8F7119
:100B2000D5D080CFD1D07ECF111529F063E08C2FA6
:100B30008F7133D577CF81E047D5023008F472CF7B
:100B400082E042D56FCF8C2F8F71E4CF011571F009
:100B5000D93349F48FEF97EE23E081509040204045
:100B6000E1F700C000008D2FF7DD5CCF8C2F8F7177
:100B7000A3CF0F931F93CF93DF93EC01688179810B
:100B80008D817FD18C01D2D085D0B801CE0139DEE4
:100B9000DF91CF911F910F910895CF93DF93EC01D7
:100BA0008C81811581F0CE01B2DC81110FC033D46C
:100BB000811549F08D81811531F08091960282FF77
:100BC00002C082E001D5DF91CF910895CE01D1DF3F
:100BD000CE0156DCF8CF80E090E00E94111A80E050
:100BE00090E00E94381A41D4CBD40E9482150C9414
:100BF00069150E94461BEFCF27D4FBCF282F929573
:100C00009F70963099F060F4925F9F70923030F44C
:100C1000203FB1F038F481E0283E38F080E00895BC
:100C20009A5FF3CF81E0243FC9F7089591E0813FB7
:100C300009F090E081E0283E08F080E0892B0895DB
:100C400081E00895FC012481211521F080819181AA
:100C50000FD1D4CF80E00895A6E0B0E0E2E3F6E063
:100C60000C94BA232696E2E00C94D623A7E0B0E0D9
:100C7000ECE3F6E00C94BA232796E2E00C94D6233A
:100C80000895FECF0895FDCF0895FADFFCDF80932D
:100C9000BE0108950895F9CF08959091BE01892B62
:100CA000F4CF9091BE018923F0CF9091BE018927A6
:100CB000ECCFE6CF0895FDCF0895E2CF0895FDDF94
:100CC000FADF8093BD01089580E0F9CF91E001C083
:100CD000990F8A95EAF7892FF2CF21E001C0220F00
:100CE0008A95EAF78091BD01822BE9CF21E001C00E
:100CF000220F8A95EAF7822F80959091BD01892372
:100D0000DECF21E001C0220F8A95EAF78091BD0174
:100D10008227D5CF9091BD01892BD1CF9091BD0174
:100D20008923CDCF9091BD018927C9CF0895CF9355
:100D3000C1E061FDC4E060FDCC0F62FDC29593E0AF
:100D4000769567959A95E1F79B01220F331F260F41
:100D5000371F420F531FFA0140E050E090E06191CD
:100D6000DF019C01042E02C0369527950A94E2F714
:100D70002695220B26272C2326272E934F5F5F4F85
:100D80004330510561F7CF910895A82FA77023E054
:100D9000969587952A95E1F79C01220F331F820FC4
:100DA000931F680F791FFB0140E050E080E0219124
:100DB00030E00A2E02C0369527950A94E2F721709A
:100DC000042E01C0220F0A94EAF7822B4F5F5F4F77
:100DD0004330510561F70895262F923060F4843036
:100DE00050F434E0939FB0011124680F711D4AEB59
:100DF00051E0822F9CCF0895923060F4843050F4FB
:100E000044E0949F900111246AEB71E0820F932FCC
:100E1000911DBBCF80E00895CF92DF92FF920F9398
:100E20001F93CF93DF936C010091BD018091BE01B0
:100E3000082BC3E0D0E010E0C8010C2E02C095954D
:100E400087950A94E2F780FD0CC02197A8F7F12C52
:100E50008F2DDF91CF911F910F91FF90DF90CF9059
:100E60000895FC2EB6018C2FFBD5019771F3F0CFBE
:100E7000CF93DF93EC01D0DFBE01F2D5DF91CF91AC
:100E800008950F931F93CF938B019091B901911502
:100E900031F0CB01EDDFCF911F910F9108958115B6
:100EA00051F0CB01B9DFC82F682FC80195DFB80119
:100EB0008C2FD6D5F0CFCB019FDFC82FF8CFE1E044
:100EC000F0E0DF0101C0AA0F6A95EAF76A2FDF019F
:100ED00001C0AA0F4A95EAF76A2B01C0EE0F2A95C6
:100EE000EAF7962F9823961302C08E2B0895E0956B
:100EF0008E230895242F462F682F8091BD01DFDFB8
:100F0000DECE0F931F930091BF018091C00180132B
:100F100003C01F910F91089587E0089FF0011124ED
:100F2000EF53FE4F2081318142815381648175816D
:100F300086819CDE0F5F1F4F0770E7CF2091F9017C
:100F40003091FA014091FB015091FC016091FD014B
:100F50007091FE018091FF0189CE8091FF01803167
:100F600070F48091FE01811551F0E091BF01209154
:100F7000C0013091FA014091F9012E1301C008958A
:100F8000BF0187E0E89FF0011124DF01AF53BE4F9E
:100F900014968C911497811549F111968C911197A3
:100FA000831324C08C91841321C015968C911597BE
:100FB00081111CC012968D919D91A091FB01B09161
:100FC000FC018A1B9B0B883C910580F48091FF01FA
:100FD0008F7080618093FF01E953FE4F80818F7095
:100FE0008061808389EF91E0D8DD8BCF6F5F7F4F89
:100FF000FB01E770C2CFE091BF019091C001E913FE
:1010000002C080E008959F0157E0E59FF0011124A0
:10101000EF53FE4F5181561306C05081581303C041
:101020005581541305C02F5F3F4FF901E770E7CF9B
:1010300081E008958F929F92AF92BF92DF92EF92DC
:10104000FF920F931F93CF93DF93CDB7DEB72D970A
:101050000FB6F894DEBF0FBECDBF8C0186E0F8015D
:10106000DE01189601900D928A95E1F7F801F5805E
:10107000848199EF892E91E0992E9091FD01911133
:1010800017C0811509F4EFC0F11409F42EC1C8018D
:10109000D9DD811509F429C187E0F801D401019057
:1010A0000D928A95E1F7C40103DB57DF47DFDBC010
:1010B000E080A280B380D090FE012091FB013091AE
:1010C000FC01A501421B530BD11409F4CFC0483CCD
:1010D000510508F09EC0811509F4C5C09091FA0130
:1010E00091808091FF01803108F065C0991226C07F
:1010F0009091F9019E1122C0F11057C08F7080614C
:101100008093FF011BDF89EF91E047DD8091FF01B4
:10111000F8018683F12C8F2D2D960FB6F894DEBF43
:101120000FBECDBFDF91CF911F910F91FF90EF9038
:10113000DF90BF90AF909F908F900895F11035C0D1
:1011400040E0692D8E2D57DF40E0692D8E2D53DF55
:10115000F82E8111DFCF888599858ADE292F229587
:101160002F70903450F49F70223078F0911591F0E8
:10117000F8019681903170F4CECF2A5F2F70223023
:1011800070F0C8010ADDFD2CC6CF911519F081154C
:1011900009F4C1CF805E883008F4BDCFF2CF803F24
:1011A00008F4B9CF815F8330F7CF8091FF01816070
:1011B0008093FF01AFCF991207C09091F9019E1162
:1011C00003C0F11409F473C0C8013CDD811509F4B2
:1011D0008CC0F11409F489C08091FF01803280F045
:1011E0002091F9013091FA0129833A83AB82BC82C4
:1011F0009091FD019D831E828F83CE010196CDDCEF
:1012000087E0F801A9EFB1E001900D928A95E1F72E
:101210004CCF9091FF01903188F4488559856A85BB
:101220007B858C859D8518DD89EF91E0B6DCF40126
:1012300087E011928A95E9F781DE6CCF811599F0EC
:101240002091FA0181812813BFCF8091F9018E117D
:10125000BBCFF110B9CF9683C8019FDCF40187E0C2
:1012600011928A95E9F7FF24F39455CF483C510534
:1012700008F03EC08115B9F3F114B9F19091FA016B
:101280008181981329C08091F9018E1125C0809128
:10129000FF0180FD18C08031B0F08683807F803FE1
:1012A00039F08681982F907F905F8F70892B86838D
:1012B000C80173DC87E0F801A9EFB1E001900D925D
:1012C0008A95E1F7F3CE87E0F801A9EFB1E001904C
:1012D0000D928A95E1F7C7CFC801B4DC811190CF98
:1012E0008091FF0181608093FF01C80156DCBBCF74
:1012F000488559856A857B858C859D85ADDC97CF32
:10130000AEE0B0E0E6E8F9E00C94B923288739872D
:101310004A875B876C877D878E87CE0108968ADE39
:101320006C85811599F0611539F0288539854A85D4
:101330005B857D858E859ADC8091BF019091C0018F
:1013400089133DC02E96E3E00C94D52387E09E01DF
:10135000285F3F4FF90127503109D90101900D92C3
:101360008A95E1F7611541F3A091C0018A2F90E0C1
:101370008395877090E0AC012091BF01241715067A
:1013800091F097E09A9FD0011124AF53BE4F9E0178
:101390002F5F3F4FF90101900D929A95E1F740932D
:1013A000C001AFDDC9CF28DC1092C0011092BF018F
:1013B000E9EFF1E087E011928A95E9F7BDCF17E0F8
:1013C000189FC00111248F539E4F34DE811509F4FC
:1013D000B9CFE091BF011E9FF0011124EF53FE4FE2
:1013E00020813181428153816481758186813EDC17
:1013F0008091BF019091C001019687708093BF01D9
:101400009BCF809128028695869586950895809138
:1014100028028770089590912802977081E09111B9
:1014200001C080E008958091540208959091540283
:10143000982B9093540208958095982F8091540290
:101440008923809354020895109254020895909134
:101450005302982B9093530208958095982F809172
:1014600053028923809353020895109253020895E2
:101470000895FECF089590912902292F282329F05D
:101480008095892380932902F4CF08950895FECF93
:10149000089590912A02292F2823281721F0982BAC
:1014A00090932A02F4CF089590912A02292F28239D
:1014B00029F08095892380932A02E9CF08958091AD
:1014C0002A02811521F010922A0280E0E0CF0895CF
:1014D000CF93C091540280915302C82B80912A026D
:1014E000811529F0C82B0E946C1A8111E8DF8C2F1E
:1014F000CF910895CF93DF93C0910201D091030162
:10150000E7DF8883C0910201D091030148E050E0F9
:1015100060E272E0CE010E94F523892B59F088E049
:10152000FE01A0E2B2E001900D928A95E1F7CE01B2
:101530000E94E019DF91CF910895CF93DF93C0917E
:101540000001D0910101C4DF8983C0910001D091D5
:10155000010140E250E060E072E0CE010E94F5231C
:10156000892B59F080E2FE01A0E0B2E001900D92DB
:101570008A95E1F7CE010E94ED19DF91CF91089590
:101580000E94CA19811529F08091950287FF01C038
:10159000D4CFB0CF0895FECF08959091960292FFD8
:1015A0000EC0982F990F990F990F962B90932802A0
:1015B00094DB80912802869586958695ECCF8DCB1D
:1015C0001092280280E0E7CF90912802809589232D
:1015D00080932802282F277059F4891749F0909199
:1015E000960292FF05C08695869586957FDBE8CFAB
:1015F00008959091960292FB222720F9281749F02E
:1016000080FB92F99093960285E992E045D082E0C2
:10161000DBCF089580919602002482FF0394802DF1
:10162000E8CF81E0E6CF80E0E4CF80E090E0BC014D
:101630006AC380E090E0BC0160D3F7CFA3E0B0E0E4
:10164000E4E2FBE00C94BA2313D31ED31B82CE0139
:10165000039631D381E08093BE0137D3198284E1B0
:101660008A83CE01019642D30E948F18E2DF23962F
:10167000E2E00C94D623E2CF08950CC30895F9D28A
:1016800081110C94571808950BC308951AC3089537
:101690001CC308951FC3089529C308953AC308952C
:1016A000A6E0B0E0E6E5FBE00C94B8230E946F1CD6
:1016B0008C0180915502909156028017910779F024
:1016C00019821A820E946F1CBC0149815A8180E0F4
:1016D00090E00E942903009355021093560226962B
:1016E000E4E00C94D4230E947B1C6093610270930D
:1016F0006202809363029093640260935D02709330
:101700005E0280935F029093600208950E947B1CAA
:10171000609361027093620280936302909364020B
:101720006093590270935A0280935B0290935C021B
:10173000089508950895FDCF08950895FEDFFBCF25
:101740000895FECF08950895FEDFFBCF84E29EE06A
:10175000D5D3F0DFF3CF81E0089581E00895FBCF8A
:101760000895089508950895FCDFFCDFFCCF87DF1E
:10177000811101C080DF85E692E086DF85E992E095
:1017800089DF13D583DF87DA8091BD0194CA0E9477
:10179000661C0E949A18BCD325D3E9DF0E94090376
:1017A000D3CFA6E0B0E0E7EDFBE00C94B223D5DFA9
:1017B00081110CC075DF1CD48111A8DF0E94A31514
:1017C0000E9411032696EAE00C94CE2317D31091C1
:1017D000570280E0A9D2181306C01091580281E088
:1017E000A3D2181739F38091650281FDA3D2B7DF28
:1017F000C82E87E5A82E82E0B82E10E0812F94D263
:10180000082FF50181915F01081729F18027D82E53
:10181000EE24E394F12C8D2D8E21B1F0C114A1F0B2
:10182000F9821A830E946F1C8B839C8381E08D83D5
:1018300091E0802F8E2109F490E049815A816B81DB
:101840007C818D810E942903F394EE0C8F2D8430CE
:1018500011F7F5010293812F11E0813079F643DF12
:10186000AACF0F931F93CF93DF93FCD0EC01D23517
:1018700008F050C0D03508F0C8C0C03ED10530F5E2
:10188000CD3CD10508F09DC0C83AD10578F4C53AE1
:10189000D10508F093C0C130D105B1F1CE01049754
:1018A000813A910588F1C0E0D0E02EC0CE01885A7F
:1018B00091094B97C0F7C85AD0E0CC0FDD1FCB5A27
:1018C000DE4F0990D881C02DD4641EC0D034A8F456
:1018D000D03208F0ADC0C83ED105B0F0CE01915075
:1018E0009F3108F78D2F61D1082F8C2F90E0BAD04F
:1018F000D02FDF71C82FD92B07C08C2F90E0B2D02A
:10190000DF70C82FD92BD06ACE01DF91CF911F9104
:101910000F910895C03882E5D807B8F5C03682E542
:10192000D80708F056C0C03482E5D807C8F4C032E2
:1019300082E5D80708F047C08C2F8695869520E26F
:10194000829FC0011124C37021E030E002C0220F49
:10195000331FCA95E2F7E901C82BD92BDD68D4CF34
:101960008C2F86958695877020E2829FC001112476
:10197000C37021E030E002C0220F331FCA95E2F7A6
:10198000E901C82BD92BDC68BFCFC03C82E5D80762
:1019900050F48C2F8F71C03AD24580F5982F84EF88
:1019A000906AEC01B1CFCE01805C9245809708F03F
:1019B0007ACFDC2FDF71C0EFD06AA6CFA497D064B6
:1019C000A3CFD065A1CF8C2F8F71D82FC1EFD06A54
:1019D0009BCF8C2F86958695877020E2829FC001D1
:1019E0001124C37021E030E002C0220F331FCA95DA
:1019F000E2F7E901C82BD92BDA6886CFD6D0982F29
:101A000080E09F71EC01D0627FCF8C2F8F71CDD0A1
:101A100053E0CC0FDD1F5A95E1F7DF70282F84FFCC
:101A200004C090E1899F90011124C22FD0696CCF2E
:101A30008D2F8F71BAD0082F8C2F90E013D0302FBC
:101A40003F71282F392B3062E9015ECF462F72306B
:101A500020F4643010F4672F0EC480E090E0089505
:101A6000F5DFFFCE803E9105D1F1C8F481339105B9
:101A700009F481C048F48932910509F471C08A32B1
:101A8000910509F47FC0089589339105E1F082380A
:101A90009105C9F08533910509F45DC00895843E30
:101AA0009105D1F148F4823E910531F1833E9105D3
:101AB00041F181EE90E00895863E9105C1F1873EA7
:101AC0009105F1F1089520919502237009F064C009
:101AD0002091960223FF14C089E290E0089520919E
:101AE000950220FD45C03091960230FF09C024FDCB
:101AF00024C083EE90E008952091950222FDF7CF57
:101B000008952091950222FD44C03091960230FD47
:101B100043C024FFF5CF11C02091960221FFF0CFE2
:101B20008091950284FD09C087EE90E00895209190
:101B3000950223FFE5CF24FFF7CF80E090E00895E2
:101B40002091950223FD2BC03091960231FFE1CF09
:101B500084EE90E008952091950225FFD1CFBCCF6F
:101B60002091950225FD1EC02091960223FFC8CF2B
:101B700089E390E008952091950226FFC1CF8AE283
:101B800090E008952091950226FFBACF81E390E07E
:101B9000089582EE90E0089580EE90E0089586EE3C
:101BA00090E0089585E390E008959091950292FF6A
:101BB00010C041E0282F2471243009F040E031E0CA
:101BC000282F2871283009F030E0431711F02CE05D
:101BD000822793FF10C041E0282F2471243109F09F
:101BE00040E031E0282F2871283109F030E0431718
:101BF00011F02CE082273091960230FF10C051E0A6
:101C0000282F2171213009F050E041E0282F287160
:101C1000283009F040E0541711F029E0822731FF05
:101C200010C041E0282F2171213109F040E031E05E
:101C3000282F2871283109F030E0431711F029E0EE
:101C4000822794FD877E089580E00895CF939C01BC
:101C5000205E3245C1E02032310538F4FB01C581F8
:101C6000C11103C08F710E9459028C2FCF9108952A
:101C7000089580E090E00E9413249C0181E0233EBF
:101C80003E4F09F080E0089563EE7EEF80E090E043
:101C90000C9441246FEF7FEF80E090E00C9441249E
:101CA000CF93DF93EC0182E090E00E940B248883C5
:101CB000DF91CF910895FC01608182E090E00C9467
:101CC000272483E090E00C940B24682F83E090E0BD
:101CD0000C942724CF93DF93EC0184E090E00E94E2
:101CE000132488839983DF91CF910895FC0160814B
:101CF000718184E090E00C944124AB01BC018FE041
:101D000090E00C943924AB01BC0183E190E00C9489
:101D10003924682F8EE090E00C9427240895FECF9C
:101D200008950895FECF0895E82FF0E0E756FD4F9F
:101D30008081089508950F931F93CF932BE831E08E
:101D400061E0D90140E050E08D918F3F99F0E82F9C
:101D5000E295EF70F0E0C1A18F70062F01C0000F77
:101D60008A95EAF7902F90959C2391A392A1802FBA
:101D7000892B82A34F5F5F4F4430510529F72C5FB9
:101D80003F4F81E023393807E1F6CF911F910F9142
:101D90000895CF93AC0184E0689FD0011124A5572A
:101DA000BE4F70E0C1E080E09D919F3F79F0E92F48
:101DB000E295EF70E05EF0E0208130E09F7002C0BD
:101DC000359527959A95E2F79C2F20FD90E0892B79
:101DD0007F5FCC0F743041F7460F511DFA018083AD
:101DE000CF910895A8DF1092990210929A02109252
:101DF00097021092980282E032D091CFA2E0B0E038
:101E0000E4E0FFE00C94B92319821A8260E0CE016D
:101E10000196BFDF61E0CE010196BBDF42E050E0FA
:101E2000CE010196BC0187E992E00E94F52321E0F2
:101E3000892B71F420E042E069E972E087E992E0E1
:101E40000FD0182F6FDF812F2296E3E00C94D5235B
:101E500089819A818093970290939802ECCF08959C
:101E6000A0E0B0E0E6E3FFE00C94B4237C016B015A
:101E7000042FC22F211579F081E0809368020E941F
:101E80006F1C809366029093670280E0CDB7DEB747
:101E9000E8E00C94D023D0916802D115B1F3809181
:101EA0006602909167020E94001C059770F310E093
:101EB000A801B701C6010E94F523892B31F0A801C2
:101EC000B701C6010E940224CD2F109268028C2F08
:101ED000DDCF67CC08950E94091C0E943B1E36DCB2
:101EE0000E94531E54DC0E945C1E0E945F1EF1DFA4
:101EF0000E94751E0E94271D37DCF7CF8093B20128
:101F00009093B30108950C945F1A089524CC08951A
:101F1000EAE6F2E088E011928A95E9F7E0C0FC0178
:101F2000228130E02395237030E0938181E0921785
:101F3000130609F080E008950F931F93CF93DF936A
:101F4000EC01162F042FEBDF811114C08A81FE01F2
:101F5000E80FF11D912F00FB97F994838F5F837039
:101F60008A8388818F5F888381E0DF91CF911F9181
:101F70000F91089580E0F9CFFC01A38182818A1737
:101F8000B1F0AE0FBF2FB11D14968C9187FB99272E
:101F900090F98F77DB018C93DA019C9383818F5FBB
:101FA0008370838381818F5F818381E0089580E0E6
:101FB0000895462F682F8AE692E0BECFAB01BC01A0
:101FC0008AE692E0D9CF81E00895CF93DF93C62FC0
:101FD000FADFD82F811541F06AE070E089EAC1117B
:101FE00001C08AEA0E94DA038D2FDF91CF91089514
:101FF000A2E0B0E0EEEFFFE00C94B823809169021C
:10200000811551F01092690280916C0280936D02EB
:1020100080916A0280936B029CD078DF182F811523
:1020200069F010E004C06981182F8A81CEDFCE01EB
:102030000196BC010196C2DF8111F5CF812F229656
:10204000E4E00C94D4238FE891E00197F1F700C00D
:102050000000089524B16E5C6F7081E001C0880FAC
:102060006A95EAF7982F9095922394B995B1892BA8
:1020700085B9089583B190E06E5C6F7002C095954C
:1020800087956A95E2F7817008950895CF93DF935D
:10209000C0E080917202C81750F0D5DFC0E0809197
:1020A0007202C81760F0F1DFDF91CF91089560E010
:1020B0008C2FD0DF61E08C2FCDDFCF5FEACF60E0E7
:1020C0008C2FD8DFD82F61E08C2FD4DFEC2FF0E0FD
:1020D000EC58FD4F880F8D2B8083CF5FE0CF81E0E0
:1020E00080937202D3CF1F93CF93DF93182F440FA7
:1020F000642BC82FD0E0DE01AC58BD4FEC918E2F81
:102100008370681711F1EE0FEE0FE62BEC93EF7072
:10211000F0E0ED56FE4FCD58DD4F80819881890F5C
:10212000888384301CF060E0812F43DF88818D3FFD
:102130001CF461E0812F3DDF8881982F990F990B66
:1021400064E070E00E948A238883DF91CF911F9121
:102150000895CF93DF93C0E080917202C81718F002
:10216000DF91CF91089561E08C2F84DFD82F60E05C
:102170008C2F80DF4D2F682F8C2FB5DFCF5FECCFFA
:102180007CCA089580E0D0DD8170089537DE8FE34A
:102190009CE90197F1F700C0000030DEF3DF811504
:1021A00019F0EEDF0C94AB1C0895F0CF0895A1E078
:1021B000B0E0EDEDF0E10C94B6237C01FC01608110
:1021C0007181828193819E012F5F3F4F890140E0A1
:1021D00050E09D0193D1F70180819181A281B3816B
:1021E0000196A11DB11D80839183A283B383898150
:1021F0002196E6E00C94D22384E00895C8C00895A7
:10220000F0C008951F93CF93DF93BFD0C0E010E0DC
:1022100011C04D2F612F8C2F0E94D0019C014D2F9A
:10222000612F8C2FDED0DF5FD43099F7812F11E042
:10223000813011F0D0E0EDCFCF5FC43041F7DF91B6
:10224000CF911F9108950F931F938A019B0140E046
:1022500050E0BC01CA01EBD01F910F9108950F937C
:102260001F938A019B0140E050E0BC01CA010BD1E1
:102270001F910F910895982F942B943018F4623089
:1022800008F485C080E090E0089580E1089531D1A0
:10229000CB0108950F931F938A019B0140E050E00A
:1022A000BC01CA012BD11F910F9108950F931F9369
:1022B0008A019B0140E050E0BC01CA0164D11F913A
:1022C0000F91089563D091C16F927F928F929F92E8
:1022D000BF92CF92DF92EF92FF920F931F93CF9313
:1022E000DF9300D000D0CDB7DEB7B82E803118F51F
:1022F00000D161507109810991097E012FEFE21A25
:10230000F20A870121E030E040E050E0F7D0898117
:10231000811111C0EED03B014C01E12CF12C670181
:10232000B1101BC0C982DA82EB82FC8240E0B801A6
:1023300087ED90E176D50F900F900F900F90DF9181
:10234000CF911F910F91FF90EF90DF90CF90BF90B2
:102350009F908F907F906F900895C301D401C8160D
:10236000D906EA06FB0639F321E030E040E050E010
:10237000B601C701C3D089819FEFC91AD90AE90AFA
:10238000F90A8111EACFBA94CBCF089508950F933B
:102390001F93CF93DF93982F942B9430F8F46230EF
:1023A000E8F498E0699FE0011124C40FD11DC40F27
:1023B000D11D20E1829FC0011124C80FD91FCE0179
:1023C00089960E940B24082FCE018A960E940B2426
:1023D000902FDF91CF911F910F91089580E090E0B1
:1023E000F8CF1F93CF93DF93122F982F942B943015
:1023F000D0F46230C0F498E0699FE0011124C40F6A
:10240000D11DC40FD11D20E1829FC0011124C80F2E
:10241000D91F632FCE0189960E942724612FCE01F8
:102420008A960E942724DF91CF911F910895A0E002
:10243000B0E0EDE1F2E10C94B0236B017C01E80126
:102440002C0D3D1D4E1D5F1D49015A01C814D904B4
:10245000EA04FB0429F4CDB7DEB7ECE00C94CC23FE
:1024600080E4C816D104E104F10458F4C601899649
:102470000E940B2489938FEFC81AD80AE80AF80A39
:10248000E5CF80E0F7CF8F929F92AF92BF92CF922D
:10249000DF92EF92FF920F931F936B017C012C0D43
:1024A0003D1D4E1D5F1D49015A01C814D904EA049F
:1024B000FB0459F41F910F91FF90EF90DF90CF90A4
:1024C000BF90AF909F908F90089580E4C816D1047C
:1024D000E104F10430F4F8016081C60189960E949C
:1024E00027240F5F1F4F8FEFC81AD80AE80AF80A8F
:1024F000DCCF67E973E080E090E008954F925F924F
:102500006F927F928F929F92AF92BF92EF92FF92C3
:102510000F931F93CF93DF934B015C0129013A0185
:10252000E8017B0189E6E80EF11C00E010E0C20141
:10253000D301081719071A061B0678F0DF91CF910F
:102540001F910F91FF90EF90BF90AF909F908F9051
:102550007F906F905F904F900895C401D501800FD8
:10256000911FA11DB11D87399340A105B10548F404
:10257000C701800F911F0E940B2489930F5F1F4F8B
:10258000D6CF80E0FACFA0E0B0E0E9ECF2E10C9425
:10259000AE236B017C0149015A013801EB01C75997
:1025A000DF4F8D01C401D501081719071A061B0654
:1025B00028F0CDB7DEB7EEE00C94CA23C601D701F0
:1025C000800F911FA11DB11D87399340A105B10551
:1025D00048F4F301E00FF11F6081CE01800F911FDD
:1025E0000E9427240F5F1F4FDDCFA0E1B0E0EBEF8B
:1025F000F2E10C94AC23FE013196DF0180E11D92E3
:102600008A95E9F70AE310E097E9492E93E0592EFD
:10261000612C712C5301A4189E2E8F2E6201730120
:1026200081E148165104610471041CF080E1C82E58
:10263000D12CA601B501892D982D0E941824AC0C2F
:10264000BD1C0D2C000C00084C185D0860087008BB
:102650000150104019F76096E0E10C94C823CF9325
:10266000DF93EB0186319C4709F50E94130A9D8197
:10267000911599F08A7A91E0811101C090E09093D0
:102680007502811541F085E3D3D70E94C00A80E02E
:10269000DF91CF91089589E2F7CF8091750281157E
:1026A00019F085E3DCD7F1CF89E2FCCF81E0F0CFF0
:1026B000CF93DF93EC01FB018581811509F4CBC039
:1026C0009E0130572332310508F0ABC085E992E016
:1026D0000E944A0BFE01E150F047E232F10520F47E
:1026E000ED59FB4D0C949D23809195028160809360
:1026F000950290C0809196028860809396028AC06D
:10270000809195028260F3CF809195028460EFCF33
:10271000809195028860EBCF809196028160EDCF29
:10272000809196028260E9CF809195028061DFCF2F
:10273000809195028062DBCF809195028064D7CF33
:102740000E94FC05809195028068D1CF809195020E
:102750008C60CDCF809196028360CFCF809195021F
:102760008E7FC5CF80919602877FC7CF80919502DB
:102770008D7FBDCF809195028B7FB9CF80919502DF
:10278000877FB5CF809196028E7FB7CF80919602DA
:102790008D7FB3CF809195028F7EA9CF80919502D6
:1027A0008F7DA5CF809195028F7BA1CF0E94FC05E4
:1027B000809195028F779BCF80919502837F97CFF1
:1027C000809196028C7F99CF90919502892F8B7F73
:1027D00092FF8460877F92FF886089CF8091960204
:1027E000982F909590FB80F990FB81F986CF90917E
:1027F0009502892F8F7B96FF806479CF0E94FC051C
:1028000090919502892F97FB87F9805870CF81E0CE
:102810000E944E0B85E992E00E944C0B0E94FC0541
:1028200080E0DF91CF91089580E0F2CF9091950202
:10283000892F8F7E94FF80615ACF90919502892FC6
:102840008E7F90FF816053CF90919602892F877F72
:1028500093FF886052CF81E0E4CF382F25EB32031D
:10286000C001112497FF04C080589109892F089551
:1028700080589F4FFBCF80917C0280FF0DC06091FC
:10288000090170E0660F771F6038710588F56115E2
:10289000710581F1862F089581FF07C060910901BC
:1028A00084E0689FB0011124EFCF82FF04C06091E3
:1028B000090188E0F6CF90917B029115B9F0609103
:1028C000080180910901961728F098E0899FB001CE
:1028D0001124DACF899FC001112423E0880F991FAA
:1028E0002A95E1F770E00E948A23CECF68E0D2CF2C
:1028F0008FE7089581E0089580917C0280FF0CC0ED
:102900006091050170E075956795759567956115FE
:10291000710541F1862F089581FF06C06091050180
:1029200070E075956795F3CF6091050182FD0BC04E
:1029300090917A029115A1F06091040180910501B6
:10294000961738F0682F70E06038710500F38FE754
:102950000895899FC001112470E00E948A23F4CF5A
:1029600061E0D8CF81E00895E82FED5CE33198F580
:10297000F0E0EB57FB4D0C949D237DDF8195809318
:102980008002089578DFFBCF76DF819580937F0208
:10299000089571DFFBCFB0DF809381020895ACDF33
:1029A0008195FACFA9DF8195809382020895A4DFF3
:1029B000FBCF815D990B21E001C0220F8A95EAF7D8
:1029C00080917E02822B80937E02089580917C020A
:1029D000816080937C02089580917C028260F9CFAF
:1029E00080917C028460F5CF40917F028D3C59F448
:1029F0008091800287FF0DC010928002411559F42A
:102A000010927B0208C08E3C81F4809180021816DF
:102A10009CF3411581F08091810290918202892B73
:102A200009F056C010927A0208958F3C41F447FF96
:102A3000F0CF10927F02809180028115E0CF803D1F
:102A400019F41416B4F3E5CF90918102893D29F46D
:102A50001916FCF610928102DCCF8A3D19F497FF1B
:102A6000D8CFF8CF909182028B3D29F497FFD1CF38
:102A700010928202CECF8C3D19F41916CCF3C9CF37
:102A8000982F915D983078F4815D990B21E001C019
:102A9000220F8A95EAF7822F809590917E028923F2
:102AA00080937E02B6CF8D3D31F480917C028E7F83
:102AB00080937C02AECF8E3D21F480917C028D7F8D
:102AC000F7CF8F3D09F0A5CF80917C028B7FF0CFAF
:102AD000089505D79C0190917F0280918002982BE8
:102AE00021F02093780230937902909181028091B5
:102AF0008202982B21F020937602309377028DE7A3
:102B000092E07DC4EDE7F2E086E011928A95E9F764
:102B100010927B0210927A0210927C020895FC01BE
:102B2000828181110EC0838181110BC0848181114A
:102B300008C091E08581811101C090E0892F8170EA
:102B4000089581E0FCCFA6E0B0E0E9EAF5E10C945D
:102B5000B72386E0EDE7F2E09E012F5F3F4FD901FA
:102B600001900D928A95E1F710927F0210928002F7
:102B700010928102109282028B819C81892B022FFC
:102B8000F32E811581F0809178029091790238D6E8
:102B9000AC0190917B029115A1F180910A018417FB
:102BA000150608F43BC08D819E81892B89F08091A8
:102BB00076029091770224D6AC0190917A02911519
:102BC00009F45AC0809106018417150608F462C002
:102BD000602F7F2D8DE792E071D5811104C08DE7C4
:102BE00092E09DDF811175DF86E0E02FFF2DADE7DC
:102BF000B2E001900D928A95E1F72696E5E00C94FB
:102C0000D32320910B018AE0289F900111242417DF
:102C1000350748F69F5F90937B0202C09F3FD1F734
:102C20001B81111551F027DE91E011160CF09FEF7A
:102C3000899F802D112480937F021C81111551F0F2
:102C40001ADE91E011160CF09FEF899F802D112460
:102C50008093800280917F02811509F4A4CF1091A6
:102C60008002111509F49FCFF8DD80937F02812F38
:102C7000F4DD8093800297CF209107018AE0289F9E
:102C8000900111242417350708F0A2CF9F5F90937D
:102C90007A0202C09F3FD1F71D81111551F02CDE41
:102CA00091E011160CF09FEF899F802D11248093E5
:102CB00081028E81182F811551F01EDE91E01116D0
:102CC0000CF09FEF899F802D1124809382028091C8
:102CD0008102811509F47CCF90918202192F911500
:102CE00009F476CFBADD80938102812FB6DD80931F
:102CF00082026ECFA0E0B0E0E0E8F6E10C94B323EE
:102D0000E82FF0E0E454FF4F9491B92E282F269538
:102D10002695269530E0F901E45AFE4FE49087703D
:102D2000F12C082E02C0F594E7940A94E2F7F90119
:102D3000E45BFE4FC490D12C082E02C0D594C794FA
:102D40000A94E2F7245C3E4FF901049110E002C0BE
:102D5000159507958A95E2F7C62FD0E0E0FC25C0CF
:102D6000C0FE06C086EE0E946903CE01009759F5A9
:102D7000BE018B2D0E94DA03CE01009761F5C0FCE5
:102D800032C0E0FE06C081EE0E94AC03CE01009787
:102D9000C1F500FF05C08CE20E94F0032097C9F541
:102DA000CDB7DEB7E9E00C94CF2381EE0E94690332
:102DB000CE010097A9F2EFE9FFE03197F1F700C0EB
:102DC00000000197F6CFEFE9FFE03197F1F700C07F
:102DD00000000197CBCFEFE9FFE03197F1F700C09A
:102DE00000000197CACF86EE0E94AC03CE01009787
:102DF00041F2EFE9FFE03197F1F700C000000197E1
:102E0000F6CFEFE9FFE03197F1F700C0000001973E
:102E1000BECF8FE99FE00197F1F700C00000219736
:102E2000BDCFA0E0B0E0E7E1F7E10C94B3238C0163
:102E30007B01B42EC701F80109958130A0F009F09B
:102E400058C0C701F8010995C82F813089F4C7011E
:102E5000F80109950E94F0038B2D90E0009709F08E
:102E600040C0C111E7CFCDB7DEB7E9E00C94CF2366
:102E7000823031F4C701F80109950E946903ECCF53
:102E8000833031F4C701F80109950E94AC03E4CF07
:102E9000843011F7C701F8010995C82FC12CD12C36
:102EA000DAE08C2F8053990B8A30910568F0C114B9
:102EB000D10491F2EFE9FFE03197F1F700C0000093
:102EC00081E0C81AD108F3CFDC9D9001DD9D300D63
:102ED0001124820F931F6C01C701F8010995C82FB7
:102EE000E0CFEFE9FFE03197F1F700C00000019774
:102EF000B5CF6B2DFFDE9ECF0F931F93CF93DF9344
:102F0000C42FD22FFC0185818115C9F04093850221
:102F1000E6D480938302909384028C2F805E883065
:102F200048F481E0C1FD84E0C0FD880FC2FD8295B8
:102F30000E94F703DF91CF911F910F910895109197
:102F40008502141333C0809183029091840258D477
:102F5000883C910558F5CD2FC05E1D17C1F0812F1B
:102F6000805E883048F481E011FD84E010FD880F18
:102F700012FD82950E94FC03C83048F481E0D1FD27
:102F800084E0D0FD880FD2FD82950E94F703802F48
:102F90000E94F00381E0D1FD84E0D0FD880FD2FDD6
:102FA0008295C83038F60E94FC03C4CF8C2F805E17
:102FB000883008F0BFCF81E0C1FD84E0C0FD880FFC
:102FC000C2FD8295F0CF0F93FC01CB01E851FC4785
:102FD000E730F10588F5E856FB4D0C949D2306E299
:102FE00021EE41EE6AE17CE787DF80E00F910895F2
:102FF00007E225EE45EE6BE17CE7F6CF06E221EE37
:1030000040EE68E17CE7F0CF07E225EE44EE69E1AF
:103010007CE7EACF06E221EE42EE6CE17CE7E4CF0A
:1030200007E225EE46EE6DE17CE7DECF08E221E027
:1030300045EE6EE17CE7D8CFFB01858181111092CE
:10304000850281E0D3CFCF93DF9387372CE79207B8
:1030500039F088379C47D1F081E0DF91CF91089516
:10306000FB018581811571F019D00E946D061CD07D
:10307000C82F17D0D82F12D04C2F6D2F0E947A074F
:1030800080E0EBCF0BD00E947606F1CFFB0185816B
:10309000811511F006D0E9CF04D0F5CF80910E0153
:1030A000089580910D01089580910C010895A3E089
:1030B000B0E0EDE5F8E10C94BA23CE010196AC0145
:1030C0000196BC01019618D18B81853239F48A8131
:1030D000883021F481E09981983109F080E0817095
:1030E0002396E2E00C94D623811521F048E168E0B4
:1030F00085E228C14FEF6FEF8FEFFBCF0895089562
:10310000CF92DF92EF92FF926B017C01F8DFB60164
:10311000C70137D1FF90EF90DF90CF900895EBD0AB
:1031200080E0E2DF80E090E0BC01EADF6BD8CAD843
:1031300081E0DACFE3DF1CD1E2DFB9DF811101C02A
:10314000EECF089508959C01FB018581811549F01A
:10315000A90157574038510528F4822FB5D880E08F
:10316000089581E008952FEFFC0120830895FBCF9F
:10317000089580E00895A0E0B0E0E1ECF8E10C945F
:10318000B523EC01D62EF5DF811110C0E881E150A6
:10319000E331C8F4F0E0E156FB4D0C949D23198215
:1031A0008CE08A836D2DCE010E94830FCDB7DEB7F0
:1031B000E7E00C94D12389818330C9F038F4813061
:1031C00061F0823091F08FEF8883ECCF8430D9F7B3
:1031D0001A821B821C821D82E5CF8DD30E94A323FD
:1031E0006A837B838C839D83DDCFC2D0F7CF0A8136
:1031F00010E07E0183E0E80EF11C0230110594F628
:10320000802F0E94940EF70181937F010F5F1F4F63
:10321000F4CF8981823029F08530A9F68A8192DF46
:10322000C1CF6A817B818C819D810E94A32368DF4D
:10323000B9CF4B816A8189810E94FE109C01382799
:10324000232732272C833D83ADCF2C813D8132272C
:10325000232732274B816A8189810E940011A2CFE6
:103260000E9402119FCF6D2DCE0181DF9BCF0DD823
:10327000898398CF0CD89C013827232732272983AC
:103280003A8390CF6B8170E089819A819827892752
:103290009827AE014C5F5F4F0E944A1183CF6B812C
:1032A00070E089819A81982789279827AE014C5F21
:1032B0005F4F0E94561176CF05D874CF0E94FC1044
:1032C000D7CF6B8170E089819A81982789279827C9
:1032D000AE014C5F5F4F0E94231164CF6B8170E0A1
:1032E00089819A81982789279827AE014C5F5F4F83
:1032F0000E942F1157CF0895EF92FF920F931F93C3
:10330000CF93DF937C018B01EA01892B31F085E2B9
:1033100090E00E940B24F70180830115110531F024
:1033200086E290E00E940B24F8018083209729F028
:1033300087E290E00E940B248883CDB7DEB7E6E0F9
:103340000C94D223CF93DF93C62FD42F682F85E21E
:1033500090E00E9427246C2F86E290E00E942724B0
:103360006D2F87E290E00E942724DF91CF9108958E
:1033700088E290E00E940B24682F70E080E090E0EB
:10338000089588E290E00C94272480938A02909319
:103390008B020895FAD1982F81E0913009F080E0F6
:1033A0000895E0918A02F0918B02309739F00190F4
:1033B000F081E02D309711F00995089580E008958F
:1033C000E0918A02F0918B02309731F00280F38114
:1033D000E02D309709F009950895E0918A02F09167
:1033E0008B02309759F024813581232B39F026E068
:1033F000DC012C930480F581E02D09950895E0917E
:103400008A02F0918B02309759F026813781232B65
:1034100039F022E0DC012C930680F781E02D09953C
:103420000895A3E0B0E0E7E1FAE10C94BA2320911B
:1034300088023091890228173907B1F080938802F9
:1034400090938902E0918A02F0918B02309761F0AB
:103450000084F185E02D309739F023E029838A83B9
:103460009B83CE01019609952396E2E00C94D62326
:10347000A3E0B0E0EEE3FAE10C94BA2320918602D7
:103480003091870228173907B1F080938602909314
:103490008702E0918A02F0918B02309761F00084FC
:1034A000F185E02D309739F024E029838A839B83CE
:1034B000CE01019609952396E2E00C94D623E09183
:1034C0008A02F0918B02309731F00284F385E02D6F
:1034D000309709F009950895CF93DF93C0910201C9
:1034E000D091030157DF811521F08091950287FD6E
:1034F00011C09E012E5F3F4F96E080E09150F90190
:1035000040812F5F3F4F41118F5F9111F7CFDF91C6
:10351000CF91089520910001309101012E5F3F4F1E
:103520009EE1EBCFCF93C82F811102C080E02EC067
:1035300031DF811521F08091950287FD0FC08091C8
:10354000020190910301FC013296089620812C170C
:10355000F9F03196E817F907C9F7E8CF8C2F86956F
:1035600086958695C03F10F7E0910001F09101012A
:10357000E80FF11D228130E0C77081E001C0880FA3
:10358000CA95EAF7282381E0232B81F2CF91089591
:1035900081E0FCCF9C01FC01329680E09FEF4081EE
:1035A000461759F031969F3F19F4411101C0982FE9
:1035B0008F5F8630A1F79F3F09F40895290F311DD1
:1035C00097FD3A95F90162830895FC0132960896B9
:1035D0002191261302C0DF011E92E817F907C1F7F7
:1035E0000895262F269526952695603F60F4820F34
:1035F000911DFC01677021E001C0220F6A95EAF776
:103600008281822B82830895262F269526952695E2
:10361000603F68F4820F911DFC019DEF61FD97EF03
:1036200060FF959562FD929582818923828308953A
:10363000CF93C82FAFDE6C2F811559F08091950282
:1036400087FF07C08091000190910101CADFCF91EF
:10365000089580910201909103019CDFF8CFCF93F0
:10366000C82F98DE6C2F811559F08091950287FF45
:1036700007C08091000190910101C6DFCF910895AC
:103680008091020190910301A0DFF8CF83DE8115C4
:1036900071F08091950287FF0AC0E0910001F091DE
:1036A000010132968EE111928A95E9F70895E09131
:1036B0000201F0910301329686E0F5CFDC01FB01B7
:1036C00011969C9111978181981322C012968C912A
:1036D0001297811519F0928189131AC013968C9153
:1036E0001397811519F09381891312C015968C9147
:1036F0001597811519F0958189130AC014969C912C
:10370000911521F081E02481291303C080E001C0DC
:1037100081E0817008950895FECF08958F5F8093B2
:10372000120160910F01709110018091110190912F
:103730001201F2CF83E08093120160910F0170912A
:1037400010018091110190911201E6CFE7CF089509
:1037500081E08093120160910F01709110018091BE
:10376000110190911201D8CFF3CF089591E081110A
:1037700001C090E09093110160910F0170911001D0
:103780008091110190911201C7CF8091110108958C
:103790008093100160910F017091100180911101CF
:1037A00090911201B9CF80911001089580930F017B
:1037B00060910F017091100180911101909112019F
:1037C000ABCF80910F01089508950895FECF08951D
:1037D00008950895F9CF0895FBDF0E94FE0EF9DFEA
:1037E00080E00E94940E811109C081E00E94940E35
:1037F000982F81E0911103C080E0089581E0089541
:10380000CF93DF93EC016BD08C1B9D0BDF91CF919D
:10381000089585B7806885BF85B7806885BF08959E
:103820001F921FB61F9211248F939F93AF93BF9344
:1038300080918C02811113C080919B0290919C0217
:10384000A0919D02B0919E024196A11DB11D809351
:103850009B0290939C02A0939D02B0939E02BF9105
:10386000AF919F918F911F901FBE1F9018958091CF
:10387000A302843031F10E94F10210928C0288E19F
:1038800090E020E40FB6F894A895809360000FBEF6
:103890002093600083B7817F846083BF83B781609A
:1038A00083BF7894889583B78E7F83BF0FB6F894D3
:1038B000A8958091600088618093600010926000FC
:1038C0000FBE08950E94FC050C94F50282E084BDB1
:1038D00093E095BD9AEF97BD80936E0008952FB742
:1038E000F89480919B0290919C02A0919D02B091CE
:1038F0009E022FBF08952FB7F89460919B0270919C
:103900009C0280919D0290919E022FBF0895789411
:103910001F921FB61F9211248F939F93AF93BF9353
:1039200080919B0290919C02A0919D02B0919E0279
:103930000196A11DB11D80939B0290939C02A093C0
:103940009D02B0939E02BF91AF919F918F911F9066
:103950001FBE1F90189581E08093E00080E2809365
:10396000D8001092C9008FE19EE40197F1F700C0E2
:103970000000A7E0B0EBCD018093AC029093AD02C4
:10398000A093AE02B093AF0288E19CE00FB6F8942A
:10399000A895809360000FBE90936000FFCF88E1F0
:1039A0009CE00FB6F894A895809360000FBE9093AA
:1039B0006000FFCF9B01BA019091A3029430D9F42B
:1039C0008F708093E9009FEF8091E80085FD06C02D
:1039D00085ED8A95F1F700009150B1F78091E800EC
:1039E00085FF09C040E050E0C901F3D18091E800B3
:1039F0008E778093E8000895603229F440E250E029
:103A0000BC0182E0D7CF089543E050E0BC0184E0E0
:103A1000D1CF46E050E0BC0184E0CCCF40E250E0A2
:103A2000BC0184E0C7CFCF93DF93EC01AEDE48E06A
:103A300050E0BE0181E0BEDF88E0FE01ADE8B2E00B
:103A400001900D928A95E1F7DF91CF910895A0E260
:103A5000B0E0ECE2FDE18EC68091A3028430F1F487
:103A600083E08093E9008091E80082FF17C0809195
:103A7000E80090E085FF07C040E050E0BD01CE01C6
:103A80000196F3D191E08091E8008B778093E80074
:103A9000911521F060E2CE0101966DDBA096E2E087
:103AA00085C68091A202811107C066D3B6D38091EA
:103AB000E20084608093E20008951092A2020895CB
:103AC00047DE81E053CE60919F0281E0611101C029
:103AD00080E030CE9091A30281E0943009F080E044
:103AE00060919F0233CE42E061EC81E0C1D242E2BC
:103AF00061EC84E0BDD242E261EC82E0B9D242E204
:103B000060EC83E0B5D29091A30281E0943009F09B
:103B100080E060919F0202CE8091A502893081F100
:103B200048F4823009F497C0833009F458C08130DA
:103B300041F008958A3009F481C08B3009F469C0DE
:103B400008958091A402813A09F048C08091E8006C
:103B5000877F8093E8008091A8029091A902892B29
:103B600059F060E080E090E070E0CBD18091E80017
:103B70008B778093E800089568E08DE892E0F4CFB9
:103B80008091A402813251F58091A8029091A902FE
:103B90008D7F892B19F58091E800877F8093E8005D
:103BA0008091E80082FF16C02091F3008091F2001E
:103BB000922F029731F48091F100813011F086301C
:103BC00019F48091F100E4DD8091E8008B77809317
:103BD000E80082C28091A3028111E2CF0895809112
:103BE000A402813AD9F78091A8029091A902892B69
:103BF000A9F78091E800877F8093E8008091E80032
:103C000080FFFCCFC2DD8093F1008091E8008E77C9
:103C1000DECF8091A402813209F78091A8029091B1
:103C2000A902892BD9F68091E800877F8093E8006C
:103C300053D28091A6029ADD0C94FC058091A402D7
:103C4000813261F68091E800877F8093E80044D25A
:103C50008091A702ABCD8091A402813A09F0BECF3A
:103C60008091E800877F8093E8008091E80080FFE2
:103C7000FCCFA7DDC8CF84B7877F84BF0FB6F89489
:103C8000A895809160008861809360001092600028
:103C90000FBE80E890E00FB6F89480936100909397
:103CA00061000FBE61CD68D2B8D2E2EEF0E0808153
:103CB00084608083789415C583E191E066CB809120
:103CC000A302853029F48091A302853011F0FACD4A
:103CD0000895CDDD81DD8115B1F38091A1028115BB
:103CE00091F361D00E94FC05EECF08959A014091B6
:103CF000AA025091AB0200C0492F50E04330510559
:103D0000D1F078F44130510509F448C042305105F2
:103D100071F48BE590E042EA51E0F9014083518370
:103D2000089541325105E9F04232510539F180E000
:103D300090E040E0F2CF482F50E0813061F0423017
:103D4000510561F0EEE9F1E04115510581F78491EB
:103D500090E0AF01E2CFECE8F1E0F9CFECE6F1E082
:103D6000F6CF6330710518F7660F771FFB01E45536
:103D7000FE4F4081518189E090E0CFCF63307105E3
:103D8000B0F6FB01EE0FFF1FEA55FE4F4081518157
:103D90006D557E4FFB01808190E0BFCF82E190E0C6
:103DA0004DEF51E0BACF80E189BD82E189BD09B410
:103DB00000FEFDCF8091D8008F7D8093D800809148
:103DC000E00082608093E0008091E00081FDFCCF04
:103DD0000895AF92BF92CF92DF92EF92FF921F931E
:103DE000CF93DF937C01EB016A0195D1182F8111EC
:103DF00022C0C114D10439F0F60180819181C81B21
:103E0000D90BE80EF91EA12CB12C2097A1F08091BE
:103E1000E80085FD20C08091E8008E778093E8005F
:103E2000C114D10499F0F601808191818A0D9B1D06
:103E30008083918315E0812FDF91CF911F91FF90B7
:103E4000EF90DF90CF90BF90AF90089564D181152F
:103E5000F1F2182FF0CFF70181917F018093F100EB
:103E600021978FEFA81AB80AD0CFAF92BF92CF9206
:103E7000DF92EF92FF921F93CF93DF937C01EB01D0
:103E80006A0149D1182F811122C0C114D10439F01F
:103E9000F60180819181C81BD90BE80EF91EA12C77
:103EA000B12C2097A1F08091E80085FD20C0809181
:103EB000E8008B778093E800C114D10499F0F601F3
:103EC000808191818A0D9B1D8083918315E0812FD4
:103ED000DF91CF911F91FF90EF90DF90CF90BF9037
:103EE000AF90089518D18115F1F2182FF0CF80917D
:103EF000F100F70181937F0121978FEFA81AB80A8B
:103F0000D0CFFC018091AA029091AB02861797074F
:103F100020F06115710561F0CB0140E0009771F46C
:103F200041110CC08091E80082FF36C080E0089506
:103F30008091E8008E778093E800EECF2091A30275
:103F40002115B1F12530B1F12091E80023FD2EC0FB
:103F50002091E80022FDE6CF2091E80020FFDECF8F
:103F60004091F3002091F200342F009719F028308F
:103F7000310558F041E02830310509F040E020914A
:103F8000E8002E772093E800C9CF41914093F100DB
:103F900001972F5F3F4FE9CF8091A302811541F038
:103FA000853041F08091E80083FFBCCF81E0089527
:103FB00082E0089583E00895FC018091AA02909127
:103FC000AB028617970720F06115710561F0CB01F0
:103FD00040E0009771F441110CC08091E80082FF2D
:103FE00037C080E008958091E8008E778093E800E4
:103FF000EECF2091A3022115B9F12530B9F120911E
:10400000E80023FD2FC02091E80022FDE6CF20919B
:10401000E80020FFDECF4091F3002091F200342F22
:10402000009719F02830310558F041E0283031056B
:1040300009F040E02091E8002E772093E800C9CFF6
:1040400044914093F100319601972F5F3F4FE8CFA5
:104050008091A302811541F0853041F08091E80004
:1040600083FFBBCF81E0089582E0089583E0089547
:10407000982F973028F08F708093E90081E00895A1
:104080009093E900242F762F50E0981731F070912B
:10409000EC002091ED005091F00021FD02C09F5FE7
:1040A000E8CF3091EB003E7F3093EB003091ED0094
:1040B0003D7F3093ED003091EB0031603093EB00A9
:1040C0007093EC002093ED005093F0002091EE00EF
:1040D00027FDE5CF80E008958091A40287FF13C0FB
:1040E0008091E80082FF06C08091E8008B77809382
:1040F000E80008958091A3028111F2CF0895809184
:10410000A3028115D9F38091E80080FFF8CF809158
:10411000E8008E77ECCF2091E4003091E50095E641
:10412000A9012091EC00822F817020FF06C08091B0
:10413000E80080FF06C080E008952091E80022FD9D
:104140001AC08091A302811589F0853089F0809191
:10415000EB0085FD0FC02091E4003091E50042178F
:104160005307F9F29150E1F684E0089582E0089552
:1041700083E0089581E008955FD066D0E0EEF0E03E
:10418000808181608083E8ED80818F77808319BC96
:10419000A7EDB0E08C918E7F8C9380818F7E8083A1
:1041A0001092A2020895CF93DF9346D04DD0C8ED70
:1041B000D0E088818F778883888180688883888130
:1041C0008F7D888319BC1092A30210929F021092D7
:1041D000A1021092A002E0EEF0E080818B7F80834C
:1041E00088818160888342E060E080E041DFE1EE29
:1041F000F0E080818E7F8083E2EE80818160808329
:10420000808188608083E0EE80818E7F80838881DA
:1042100080618883DF91CF910895E8EDF0E080819F
:104220008F7E8083E7ED80818160808384E082BF20
:1042300081E08093A202B7CFE8EDF0E080818E7F2D
:1042400080831092E20008951092DA001092E1004B
:1042500008951F920F920FB60F9211242F933F9340
:104260004F935F936F937F938F939F93AF93BF937E
:10427000EF93FF938091E10082FF0AC08091E200FA
:1042800082FF06C08091E1008B7F8093E10028D2FD
:104290008091DA0080FF18C08091D80080FF14C0A0
:1042A0008091DA008E7F8093DA008091D90080FFC0
:1042B0008FC080E189BD82E189BD09B400FEFDCFD8
:1042C00081E08093A302EDDB8091E10080FF18C0C4
:1042D0008091E20080FF14C08091E2008E7F809385
:1042E000E2008091E20080618093E2008091D8003A
:1042F00080628093D80019BC85E08093A302E3DB41
:104300008091E10084FF28C08091E20084FF24C0F6
:1043100080E189BD82E189BD09B400FEFDCF8091B5
:10432000D8008F7D8093D8008091E1008F7E8093AC
:10433000E1008091E2008F7E8093E2008091E200B4
:1043400081608093E20080919F02811509F445C04D
:1043500084E08093A302BEDB8091E10083FF27C04D
:104360008091E20083FF23C08091E100877F8093EA
:10437000E10082E08093A30210929F028091E1000D
:104380008E7F8093E1008091E2008E7F8093E20037
:104390008091E20080618093E20042E060E080E092
:1043A00067DE8091F00088608093F00089DBFF91E8
:1043B000EF91BF91AF919F918F917F916F915F919D
:1043C0004F913F912F910F900FBE0F901F90189516
:1043D00019BC1092A30271DB77CF8091E30087FFB5
:1043E00002C083E0B6CF81E0B4CF1F920F920FB628
:1043F0000F9211241F932F933F934F935F936F93CB
:104400007F938F939F93AF93BF93CF93DF93EF935C
:10441000FF93E9EEF0E080811091EC008F7010FBCB
:10442000112717F9182B1082C0EFD0E08881877F01
:10443000888378941CD0E9EEF0E01082888188604F
:1044400088831F701083FF91EF91DF91CF91BF910F
:10445000AF919F918F917F916F915F914F913F911C
:104460002F911F910F900FBE0F901F901895AAE2E9
:10447000B0E0ECE3F2E27DC184EA92E0FC01019657
:104480002091F100208322E08C3A9207B9F744DBB7
:104490008091E80083FF37C08091A4029091A5022B
:1044A0009A3088F5E92FF0E0EE54FB4D46C1803894
:1044B00089F0823841F58091A8028F70873018F515
:1044C0008093E9008091EB0085FB882780F91092AA
:1044D000E90006C08091A102880F9091A002892B6B
:1044E0009091E800977F9093E8008093F1001092FC
:1044F000F1008091E8008E7722C0811115C0809173
:10450000A602813001F18091E80083FF0AC080910A
:10451000E800877F8093E8008091EB0080628093C1
:10452000EB00AA96E3E041C1823069F78091A602D0
:10453000811579F01092E9008091E800877F8093DF
:10454000E800CADDE0CF933009F080E08093A1025B
:10455000F1CF8091A8028F70282F2150263098F635
:104560008093E9002091EB0020FFE4CF933031F4F9
:104570008091EB0080628093EB00DCCF9091EB00A8
:1045800090619093EB0021E001C0220F8A95EAF739
:104590002093EA001092EA008091EB008860EBCF54
:1045A0008111B1CF8091A6028F77182F8091E300FF
:1045B0008078812B8093E3008091E800877F80934F
:1045C000E8008ADD8091E80080FFFCCF8091E30065
:1045D00080688093E30083E0111101C082E0809342
:1045E000A30291CF8058823008F08DCF8091A6022F
:1045F0009091A7028C3D23E0920789F583E08A839E
:104600008AE289834FB7F894DE01139620E03EE0FA
:1046100051E2E32FF0E050935700849120FF03C054
:1046200082958F703F5F8F708A30B8F0895C8D9370
:104630001D922F5F243169F74FBF8091E800877F7B
:104640008093E8006AE270E0CE0101965ADC809126
:10465000E8008B778093E80056CF805DE8CF6091CB
:10466000A8027091A9029E012F5F3F4FA9013EDB76
:10467000BC01892B09F447CF9091E800977F909374
:10468000E80089819A8198DCE2CF803809F03BCF3D
:104690008091E800877F8093E80080919F0280935B
:1046A000F10027CF81112FCF9091A602923008F010
:1046B0002ACF8091E800877F8093E80090939F0243
:1046C0000BDD80919F02811529F084E08093A30285
:1046D0000ADA19CF8091E30087FDF7CF81E0F6CFAA
:1046E0000895CF938091A302811591F08091E90004
:1046F000C091EC008F70C0FBCC27C7F9C82B10927B
:10470000E9008091E80083FDB2DECF70C093E9003C
:10471000CF91089597FB072E16F4009406D077FDED
:1047200008D04FD007FC05D03EF4909581959F4F5F
:104730000895709561957F4F0895EE0FFF1F0590C6
:10474000F491E02D09946927962769277827872710
:10475000782708952F923F924F925F926F927F92A7
:104760008F929F92AF92BF92CF92DF92EF92FF9281
:104770000F931F93CF93DF93CDB7DEB7CA1BDB0B2D
:104780000FB6F894DEBF0FBECDBF09942A883988D2
:1047900048885F846E847D848C849B84AA84B984D9
:1047A000C884DF80EE80FD800C811B81AA81B981E5
:1047B000CE0FD11D0FB6F894DEBF0FBECDBFED01F9
:1047C0000895AA1BBB1B51E107C0AA1FBB1FA61758
:1047D000B70710F0A61BB70B881F991F5A95A9F7AA
:1047E00080959095BC01CD010895FB01DC0104C0CA
:1047F0008D910190801921F441505040C8F7881BD9
:10480000990B0895FB01DC0102C001900D9241500B
:104810005040D8F70895F999FECF92BD81BDF89A1E
:10482000992780B50895A8E1B0E042E050E02FC09C
:10483000DC01A40FB51F4150504040F0CB01840F64
:10484000951F2E9105D041505040D8F70895262F3E
:10485000F999FECF92BD81BDF89A019700B4021676
:1048600039F01FBA20BD0FB6F894FA9AF99A0FBE24
:1048700008950396272FECDFEADF252FE9DF242FA9
:10488000E7CF0196272FE4DFE2CFDC01CB01FC016B
:10489000F999FECF06C0F2BDE1BDF89A319600B499
:1048A0000D9241505040B8F70895F894FFCF3C0462
:1048B0003C0473047304CA04E60464046404EA0454
:1048C00051055E055E05AE131D14B61380138413E7
:1048D000BA138813BE13CA13941316149813CE1365
:1048E0009C13D213F713A013D613FE13A613DC13D5
:1048F000E4138C13C2139013C613AA13E013EE1320
:10490000071414147A13B2132414BD14C214C4145B
:10491000C914D914D914D914D914D914D914D9143F
:10492000D914CB14CF14D214D714E614EC14F01409
:10493000FE170418EF17F8170A1810181618CF18D2
:10494000DB180919191925193019331933193319B5
:10495000E318E31837193A1942194F195C195E190F
:1049600061196E1957227D2283227D228322D02253
:08497000F222832245235223A9
:104978002B024B02280850011E0A140103020100F1
:10498800000100D31B131D0E1D091D041DFC1CE294
:1049980000E900EA00B500B600B700CD008301CCFD
:1049A800008A019201940121022302240225022691
:1049B8000227022A02B300B4006F0070009F01CBE7
:1049C800019F02A002E200E900EA00B500B600B7C4
:1049D80000CD008301CC008A0192019401210223B9
:1049E8000224022502260227022A02B300B4006F1D
:1049F8000070009F01CB019F02A002F4F5F6FFF7BB
:104A080031343500FF0100010000FFFF0000010004
:104A180001FF004422B6E7020F023102B401CD01C2
:024A2800ED019E
:00000001FF
